{
  "_format": "hh-sol-artifact-1",
  "contractName": "Factory",
  "sourceName": "contracts/Factory.sol",
  "abi": [
    {
      "inputs": [
        {
          "internalType": "address",
          "name": "_ticketNftAddress",
          "type": "address"
        },
        {
          "internalType": "address",
          "name": "_registry",
          "type": "address"
        }
      ],
      "stateMutability": "nonpayable",
      "type": "constructor"
    },
    {
      "anonymous": false,
      "inputs": [
        {
          "indexed": false,
          "internalType": "address",
          "name": "",
          "type": "address"
        }
      ],
      "name": "EventCreated",
      "type": "event"
    },
    {
      "inputs": [],
      "name": "allEvents",
      "outputs": [
        {
          "internalType": "address[]",
          "name": "",
          "type": "address[]"
        }
      ],
      "stateMutability": "view",
      "type": "function"
    },
    {
      "inputs": [
        {
          "internalType": "address",
          "name": "_owner",
          "type": "address"
        }
      ],
      "name": "allEvents",
      "outputs": [
        {
          "internalType": "address[]",
          "name": "",
          "type": "address[]"
        }
      ],
      "stateMutability": "view",
      "type": "function"
    },
    {
      "inputs": [
        {
          "internalType": "uint256",
          "name": "_totalSupply",
          "type": "uint256"
        },
        {
          "internalType": "uint256",
          "name": "_price",
          "type": "uint256"
        }
      ],
      "name": "createEvent",
      "outputs": [
        {
          "internalType": "address",
          "name": "clone",
          "type": "address"
        }
      ],
      "stateMutability": "nonpayable",
      "type": "function"
    }
  ],
  "bytecode": "0x608060405234801561001057600080fd5b506040516109873803806109878339818101604052810190610032919061011d565b816000806101000a81548173ffffffffffffffffffffffffffffffffffffffff021916908373ffffffffffffffffffffffffffffffffffffffff16021790555080600460006101000a81548173ffffffffffffffffffffffffffffffffffffffff021916908373ffffffffffffffffffffffffffffffffffffffff160217905550505061015d565b600080fd5b600073ffffffffffffffffffffffffffffffffffffffff82169050919050565b60006100ea826100bf565b9050919050565b6100fa816100df565b811461010557600080fd5b50565b600081519050610117816100f1565b92915050565b60008060408385031215610134576101336100ba565b5b600061014285828601610108565b925050602061015385828601610108565b9150509250929050565b61081b8061016c6000396000f3fe608060405234801561001057600080fd5b50600436106100415760003560e01c806314d7c37514610046578063544ce83914610064578063790c012514610094575b600080fd5b61004e6100c4565b60405161005b9190610602565b60405180910390f35b61007e60048036038101906100799190610655565b610152565b60405161008b9190610602565b60405180910390f35b6100ae60048036038101906100a991906106b8565b61021f565b6040516100bb9190610707565b60405180910390f35b6060600280548060200260200160405190810160405280929190818152602001828054801561014857602002820191906000526020600020905b8160009054906101000a900473ffffffffffffffffffffffffffffffffffffffff1673ffffffffffffffffffffffffffffffffffffffff16815260200190600101908083116100fe575b5050505050905090565b6060600160008373ffffffffffffffffffffffffffffffffffffffff1673ffffffffffffffffffffffffffffffffffffffff16815260200190815260200160002080548060200260200160405190810160405280929190818152602001828054801561021357602002820191906000526020600020905b8160009054906101000a900473ffffffffffffffffffffffffffffffffffffffff1673ffffffffffffffffffffffffffffffffffffffff16815260200190600101908083116101c9575b50505050509050919050565b600061024a60008054906101000a900473ffffffffffffffffffffffffffffffffffffffff16610427565b90508073ffffffffffffffffffffffffffffffffffffffff1663a6ab36f28484600460009054906101000a900473ffffffffffffffffffffffffffffffffffffffff166040518463ffffffff1660e01b81526004016102ab93929190610731565b600060405180830381600087803b1580156102c557600080fd5b505af11580156102d9573d6000803e3d6000fd5b505050506102e760036104fc565b7ffc8a4c0621b9788c4dbe57053a51ce2d22625a067d039f38004df2a07ca755a4816040516103169190610707565b60405180910390a1600160003373ffffffffffffffffffffffffffffffffffffffff1673ffffffffffffffffffffffffffffffffffffffff168152602001908152602001600020819080600181540180825580915050600190039060005260206000200160009091909190916101000a81548173ffffffffffffffffffffffffffffffffffffffff021916908373ffffffffffffffffffffffffffffffffffffffff1602179055506002819080600181540180825580915050600190039060005260206000200160009091909190916101000a81548173ffffffffffffffffffffffffffffffffffffffff021916908373ffffffffffffffffffffffffffffffffffffffff16021790555092915050565b60006040517f3d602d80600a3d3981f3363d3d373d3d3d363d7300000000000000000000000081528260601b60148201527f5af43d82803e903d91602b57fd5bf3000000000000000000000000000000000060288201526037816000f0915050600073ffffffffffffffffffffffffffffffffffffffff168173ffffffffffffffffffffffffffffffffffffffff1614156104f7576040517f08c379a00000000000000000000000000000000000000000000000000000000081526004016104ee906107c5565b60405180910390fd5b919050565b6001816000016000828254019250508190555050565b600081519050919050565b600082825260208201905092915050565b6000819050602082019050919050565b600073ffffffffffffffffffffffffffffffffffffffff82169050919050565b60006105698261053e565b9050919050565b6105798161055e565b82525050565b600061058b8383610570565b60208301905092915050565b6000602082019050919050565b60006105af82610512565b6105b9818561051d565b93506105c48361052e565b8060005b838110156105f55781516105dc888261057f565b97506105e783610597565b9250506001810190506105c8565b5085935050505092915050565b6000602082019050818103600083015261061c81846105a4565b905092915050565b600080fd5b6106328161055e565b811461063d57600080fd5b50565b60008135905061064f81610629565b92915050565b60006020828403121561066b5761066a610624565b5b600061067984828501610640565b91505092915050565b6000819050919050565b61069581610682565b81146106a057600080fd5b50565b6000813590506106b28161068c565b92915050565b600080604083850312156106cf576106ce610624565b5b60006106dd858286016106a3565b92505060206106ee858286016106a3565b9150509250929050565b6107018161055e565b82525050565b600060208201905061071c60008301846106f8565b92915050565b61072b81610682565b82525050565b60006060820190506107466000830186610722565b6107536020830185610722565b61076060408301846106f8565b949350505050565b600082825260208201905092915050565b7f455243313136373a20637265617465206661696c656400000000000000000000600082015250565b60006107af601683610768565b91506107ba82610779565b602082019050919050565b600060208201905081810360008301526107de816107a2565b905091905056fea264697066735822122001522f75082ad34028b544e308eef428295cc42bc03a3bc60f4d4a3bf9271e6564736f6c634300080c0033",
  "linkReferences": {},
  "deployedLinkReferences": {}
}