{
  "_format": "hh-sol-artifact-1",
  "contractName": "EventNFT",
  "sourceName": "contracts/EventNFT.sol",
  "abi": [
    {
      "anonymous": false,
      "inputs": [
        {
          "indexed": true,
          "internalType": "address",
          "name": "owner",
          "type": "address"
        },
        {
          "indexed": true,
          "internalType": "address",
          "name": "approved",
          "type": "address"
        },
        {
          "indexed": true,
          "internalType": "uint256",
          "name": "tokenId",
          "type": "uint256"
        }
      ],
      "name": "Approval",
      "type": "event"
    },
    {
      "anonymous": false,
      "inputs": [
        {
          "indexed": true,
          "internalType": "address",
          "name": "owner",
          "type": "address"
        },
        {
          "indexed": true,
          "internalType": "address",
          "name": "operator",
          "type": "address"
        },
        {
          "indexed": false,
          "internalType": "bool",
          "name": "approved",
          "type": "bool"
        }
      ],
      "name": "ApprovalForAll",
      "type": "event"
    },
    {
      "anonymous": false,
      "inputs": [
        {
          "indexed": false,
          "internalType": "uint8",
          "name": "version",
          "type": "uint8"
        }
      ],
      "name": "Initialized",
      "type": "event"
    },
    {
      "anonymous": false,
      "inputs": [
        {
          "indexed": true,
          "internalType": "address",
          "name": "previousOwner",
          "type": "address"
        },
        {
          "indexed": true,
          "internalType": "address",
          "name": "newOwner",
          "type": "address"
        }
      ],
      "name": "OwnershipTransferred",
      "type": "event"
    },
    {
      "anonymous": false,
      "inputs": [
        {
          "indexed": false,
          "internalType": "address",
          "name": "",
          "type": "address"
        },
        {
          "indexed": false,
          "internalType": "uint256",
          "name": "",
          "type": "uint256"
        }
      ],
      "name": "TicketBought",
      "type": "event"
    },
    {
      "anonymous": false,
      "inputs": [
        {
          "indexed": true,
          "internalType": "address",
          "name": "from",
          "type": "address"
        },
        {
          "indexed": true,
          "internalType": "address",
          "name": "to",
          "type": "address"
        },
        {
          "indexed": true,
          "internalType": "uint256",
          "name": "tokenId",
          "type": "uint256"
        }
      ],
      "name": "Transfer",
      "type": "event"
    },
    {
      "inputs": [
        {
          "internalType": "address",
          "name": "to",
          "type": "address"
        },
        {
          "internalType": "uint256",
          "name": "tokenId",
          "type": "uint256"
        }
      ],
      "name": "approve",
      "outputs": [],
      "stateMutability": "nonpayable",
      "type": "function"
    },
    {
      "inputs": [
        {
          "internalType": "address",
          "name": "owner",
          "type": "address"
        }
      ],
      "name": "balanceOf",
      "outputs": [
        {
          "internalType": "uint256",
          "name": "",
          "type": "uint256"
        }
      ],
      "stateMutability": "view",
      "type": "function"
    },
    {
      "inputs": [],
      "name": "buyTicket",
      "outputs": [],
      "stateMutability": "payable",
      "type": "function"
    },
    {
      "inputs": [],
      "name": "creator",
      "outputs": [
        {
          "internalType": "address",
          "name": "",
          "type": "address"
        }
      ],
      "stateMutability": "view",
      "type": "function"
    },
    {
      "inputs": [
        {
          "internalType": "uint256",
          "name": "tokenId",
          "type": "uint256"
        }
      ],
      "name": "getApproved",
      "outputs": [
        {
          "internalType": "address",
          "name": "",
          "type": "address"
        }
      ],
      "stateMutability": "view",
      "type": "function"
    },
    {
      "inputs": [
        {
          "internalType": "address",
          "name": "sender",
          "type": "address"
        }
      ],
      "name": "getPolicy",
      "outputs": [
        {
          "components": [
            {
              "internalType": "bool",
              "name": "allowInsert",
              "type": "bool"
            },
            {
              "internalType": "bool",
              "name": "allowUpdate",
              "type": "bool"
            },
            {
              "internalType": "bool",
              "name": "allowDelete",
              "type": "bool"
            },
            {
              "internalType": "string",
              "name": "whereClause",
              "type": "string"
            },
            {
              "internalType": "string",
              "name": "withCheck",
              "type": "string"
            },
            {
              "internalType": "string[]",
              "name": "updatableColumns",
              "type": "string[]"
            }
          ],
          "internalType": "struct ITablelandController.Policy",
          "name": "",
          "type": "tuple"
        }
      ],
      "stateMutability": "payable",
      "type": "function"
    },
    {
      "inputs": [],
      "name": "getTicketHolders",
      "outputs": [
        {
          "internalType": "address[]",
          "name": "",
          "type": "address[]"
        }
      ],
      "stateMutability": "view",
      "type": "function"
    },
    {
      "inputs": [
        {
          "internalType": "uint256",
          "name": "_totalSupply",
          "type": "uint256"
        },
        {
          "internalType": "uint256",
          "name": "_price",
          "type": "uint256"
        },
        {
          "internalType": "address",
          "name": "_creator",
          "type": "address"
        },
        {
          "internalType": "string",
          "name": "_metadataUri",
          "type": "string"
        }
      ],
      "name": "initialize",
      "outputs": [],
      "stateMutability": "nonpayable",
      "type": "function"
    },
    {
      "inputs": [
        {
          "internalType": "address",
          "name": "owner",
          "type": "address"
        },
        {
          "internalType": "address",
          "name": "operator",
          "type": "address"
        }
      ],
      "name": "isApprovedForAll",
      "outputs": [
        {
          "internalType": "bool",
          "name": "",
          "type": "bool"
        }
      ],
      "stateMutability": "view",
      "type": "function"
    },
    {
      "inputs": [],
      "name": "metadataUri",
      "outputs": [
        {
          "internalType": "string",
          "name": "",
          "type": "string"
        }
      ],
      "stateMutability": "view",
      "type": "function"
    },
    {
      "inputs": [],
      "name": "name",
      "outputs": [
        {
          "internalType": "string",
          "name": "",
          "type": "string"
        }
      ],
      "stateMutability": "view",
      "type": "function"
    },
    {
      "inputs": [],
      "name": "owner",
      "outputs": [
        {
          "internalType": "address",
          "name": "",
          "type": "address"
        }
      ],
      "stateMutability": "view",
      "type": "function"
    },
    {
      "inputs": [
        {
          "internalType": "uint256",
          "name": "tokenId",
          "type": "uint256"
        }
      ],
      "name": "ownerOf",
      "outputs": [
        {
          "internalType": "address",
          "name": "",
          "type": "address"
        }
      ],
      "stateMutability": "view",
      "type": "function"
    },
    {
      "inputs": [],
      "name": "price",
      "outputs": [
        {
          "internalType": "uint256",
          "name": "",
          "type": "uint256"
        }
      ],
      "stateMutability": "view",
      "type": "function"
    },
    {
      "inputs": [],
      "name": "renounceOwnership",
      "outputs": [],
      "stateMutability": "nonpayable",
      "type": "function"
    },
    {
      "inputs": [
        {
          "internalType": "address",
          "name": "from",
          "type": "address"
        },
        {
          "internalType": "address",
          "name": "to",
          "type": "address"
        },
        {
          "internalType": "uint256",
          "name": "tokenId",
          "type": "uint256"
        }
      ],
      "name": "safeTransferFrom",
      "outputs": [],
      "stateMutability": "nonpayable",
      "type": "function"
    },
    {
      "inputs": [
        {
          "internalType": "address",
          "name": "from",
          "type": "address"
        },
        {
          "internalType": "address",
          "name": "to",
          "type": "address"
        },
        {
          "internalType": "uint256",
          "name": "tokenId",
          "type": "uint256"
        },
        {
          "internalType": "bytes",
          "name": "data",
          "type": "bytes"
        }
      ],
      "name": "safeTransferFrom",
      "outputs": [],
      "stateMutability": "nonpayable",
      "type": "function"
    },
    {
      "inputs": [
        {
          "internalType": "address",
          "name": "operator",
          "type": "address"
        },
        {
          "internalType": "bool",
          "name": "approved",
          "type": "bool"
        }
      ],
      "name": "setApprovalForAll",
      "outputs": [],
      "stateMutability": "nonpayable",
      "type": "function"
    },
    {
      "inputs": [
        {
          "internalType": "string",
          "name": "_name",
          "type": "string"
        },
        {
          "internalType": "string",
          "name": "_description",
          "type": "string"
        },
        {
          "internalType": "string",
          "name": "_image",
          "type": "string"
        },
        {
          "internalType": "uint256",
          "name": "_date",
          "type": "uint256"
        }
      ],
      "name": "setMetadata",
      "outputs": [],
      "stateMutability": "nonpayable",
      "type": "function"
    },
    {
      "inputs": [
        {
          "internalType": "bytes4",
          "name": "interfaceId",
          "type": "bytes4"
        }
      ],
      "name": "supportsInterface",
      "outputs": [
        {
          "internalType": "bool",
          "name": "",
          "type": "bool"
        }
      ],
      "stateMutability": "view",
      "type": "function"
    },
    {
      "inputs": [],
      "name": "symbol",
      "outputs": [
        {
          "internalType": "string",
          "name": "",
          "type": "string"
        }
      ],
      "stateMutability": "view",
      "type": "function"
    },
    {
      "inputs": [
        {
          "internalType": "uint256",
          "name": "",
          "type": "uint256"
        }
      ],
      "name": "ticketHolders",
      "outputs": [
        {
          "internalType": "address",
          "name": "",
          "type": "address"
        }
      ],
      "stateMutability": "view",
      "type": "function"
    },
    {
      "inputs": [
        {
          "internalType": "uint256",
          "name": "tokenId",
          "type": "uint256"
        }
      ],
      "name": "tokenURI",
      "outputs": [
        {
          "internalType": "string",
          "name": "",
          "type": "string"
        }
      ],
      "stateMutability": "view",
      "type": "function"
    },
    {
      "inputs": [],
      "name": "totalSupply",
      "outputs": [
        {
          "internalType": "uint256",
          "name": "",
          "type": "uint256"
        }
      ],
      "stateMutability": "view",
      "type": "function"
    },
    {
      "inputs": [
        {
          "internalType": "address",
          "name": "from",
          "type": "address"
        },
        {
          "internalType": "address",
          "name": "to",
          "type": "address"
        },
        {
          "internalType": "uint256",
          "name": "tokenId",
          "type": "uint256"
        }
      ],
      "name": "transferFrom",
      "outputs": [],
      "stateMutability": "nonpayable",
      "type": "function"
    },
    {
      "inputs": [
        {
          "internalType": "address",
          "name": "newOwner",
          "type": "address"
        }
      ],
      "name": "transferOwnership",
      "outputs": [],
      "stateMutability": "nonpayable",
      "type": "function"
    }
  ],
  "bytecode": "0x608060405234801561001057600080fd5b5061416c806100206000396000f3fe6080604052600436106101815760003560e01c8063715018a6116100d1578063a035b1fe1161008a578063c87b56dd11610064578063c87b56dd14610575578063e985e9c5146105b2578063edca914c146105ef578063f2fde38b146105f957610181565b8063a035b1fe146104f8578063a22cb46514610523578063b88d4fde1461054c57610181565b8063715018a6146103f857806377a4d5591461040f5780638da5cb5b1461043a57806395d89b41146104655780639857593d146104905780639c067c32146104bb57610181565b806323b872dd1161013e5780633ed2dad6116101185780633ed2dad61461032c57806342842e0e146103555780636352211e1461037e57806370a08231146103bb57610181565b806323b872dd146102aa57806332cfb5d4146102d35780633791dc6a146102fc57610181565b806301ffc9a71461018657806302d05d3f146101c357806306fdde03146101ee578063081812fc14610219578063095ea7b31461025657806318160ddd1461027f575b600080fd5b34801561019257600080fd5b506101ad60048036038101906101a89190612694565b610622565b6040516101ba91906126dc565b60405180910390f35b3480156101cf57600080fd5b506101d8610704565b6040516101e59190612738565b60405180910390f35b3480156101fa57600080fd5b5061020361072a565b60405161021091906127ec565b60405180910390f35b34801561022557600080fd5b50610240600480360381019061023b9190612844565b6107bc565b60405161024d9190612738565b60405180910390f35b34801561026257600080fd5b5061027d6004803603810190610278919061289d565b610802565b005b34801561028b57600080fd5b5061029461091a565b6040516102a191906128ec565b60405180910390f35b3480156102b657600080fd5b506102d160048036038101906102cc9190612907565b610920565b005b3480156102df57600080fd5b506102fa60048036038101906102f59190612a8f565b610980565b005b61031660048036038101906103119190612b12565b610b9c565b6040516103239190612cf1565b60405180910390f35b34801561033857600080fd5b50610353600480360381019061034e9190612d13565b610e31565b005b34801561036157600080fd5b5061037c60048036038101906103779190612907565b610f15565b005b34801561038a57600080fd5b506103a560048036038101906103a09190612844565b610f35565b6040516103b29190612738565b60405180910390f35b3480156103c757600080fd5b506103e260048036038101906103dd9190612b12565b610fe7565b6040516103ef91906128ec565b60405180910390f35b34801561040457600080fd5b5061040d61109f565b005b34801561041b57600080fd5b506104246110b3565b60405161043191906127ec565b60405180910390f35b34801561044657600080fd5b5061044f611141565b60405161045c9190612738565b60405180910390f35b34801561047157600080fd5b5061047a61116b565b60405161048791906127ec565b60405180910390f35b34801561049c57600080fd5b506104a56111fd565b6040516104b29190612e8c565b60405180910390f35b3480156104c757600080fd5b506104e260048036038101906104dd9190612844565b61128c565b6040516104ef9190612738565b60405180910390f35b34801561050457600080fd5b5061050d6112cc565b60405161051a91906128ec565b60405180910390f35b34801561052f57600080fd5b5061054a60048036038101906105459190612eda565b6112d2565b005b34801561055857600080fd5b50610573600480360381019061056e9190612fbb565b6112e8565b005b34801561058157600080fd5b5061059c60048036038101906105979190612844565b61134a565b6040516105a991906127ec565b60405180910390f35b3480156105be57600080fd5b506105d960048036038101906105d4919061303e565b6113c9565b6040516105e691906126dc565b60405180910390f35b6105f761145d565b005b34801561060557600080fd5b50610620600480360381019061061b9190612b12565b6115b5565b005b60007f80ac58cd000000000000000000000000000000000000000000000000000000007bffffffffffffffffffffffffffffffffffffffffffffffffffffffff1916827bffffffffffffffffffffffffffffffffffffffffffffffffffffffff191614806106ed57507f5b5e139f000000000000000000000000000000000000000000000000000000007bffffffffffffffffffffffffffffffffffffffffffffffffffffffff1916827bffffffffffffffffffffffffffffffffffffffffffffffffffffffff1916145b806106fd57506106fc82611639565b5b9050919050565b60fe60009054906101000a900473ffffffffffffffffffffffffffffffffffffffff1681565b606060978054610739906130ad565b80601f0160208091040260200160405190810160405280929190818152602001828054610765906130ad565b80156107b25780601f10610787576101008083540402835291602001916107b2565b820191906000526020600020905b81548152906001019060200180831161079557829003601f168201915b5050505050905090565b60006107c7826116a3565b609b600083815260200190815260200160002060009054906101000a900473ffffffffffffffffffffffffffffffffffffffff169050919050565b600061080d82610f35565b90508073ffffffffffffffffffffffffffffffffffffffff168373ffffffffffffffffffffffffffffffffffffffff16141561087e576040517f08c379a000000000000000000000000000000000000000000000000000000000815260040161087590613151565b60405180910390fd5b8073ffffffffffffffffffffffffffffffffffffffff1661089d6116ee565b73ffffffffffffffffffffffffffffffffffffffff1614806108cc57506108cb816108c66116ee565b6113c9565b5b61090b576040517f08c379a0000000000000000000000000000000000000000000000000000000008152600401610902906131e3565b60405180910390fd5b61091583836116f6565b505050565b60fd5481565b61093161092b6116ee565b826117af565b610970576040517f08c379a000000000000000000000000000000000000000000000000000000000815260040161096790613275565b60405180910390fd5b61097b838383611844565b505050565b60008060019054906101000a900460ff161590508080156109b15750600160008054906101000a900460ff1660ff16105b806109de57506109c030611aab565b1580156109dd5750600160008054906101000a900460ff1660ff16145b5b610a1d576040517f08c379a0000000000000000000000000000000000000000000000000000000008152600401610a1490613307565b60405180910390fd5b60016000806101000a81548160ff021916908360ff1602179055508015610a5a576001600060016101000a81548160ff0219169083151502179055505b610ace6040518060400160405280600881526020017f4576656e744e46540000000000000000000000000000000000000000000000008152506040518060400160405280600681526020017f5449434b45540000000000000000000000000000000000000000000000000000815250611ace565b610ad6611b2b565b8360fc819055508460fd819055508260fe60006101000a81548173ffffffffffffffffffffffffffffffffffffffff021916908373ffffffffffffffffffffffffffffffffffffffff1602179055508160ff9080519060200190610b3b929190612549565b508015610b955760008060016101000a81548160ff0219169083151502179055507f7f26b83ff96e1f2b6a682f133852f6798a09c465da95921460cefb38474024986001604051610b8c9190613379565b60405180910390a15b5050505050565b610ba46125cf565b610bac611141565b73ffffffffffffffffffffffffffffffffffffffff168273ffffffffffffffffffffffffffffffffffffffff161415610c88576040518060c00160405280600115158152602001600115158152602001600015158152602001604051806020016040528060008152508152602001604051806020016040528060008152508152602001600067ffffffffffffffff811115610c4a57610c49612964565b5b604051908082528060200260200182016040528015610c7d57816020015b6060815260200190600190039081610c685790505b508152509050610e2c565b60fe60009054906101000a900473ffffffffffffffffffffffffffffffffffffffff1673ffffffffffffffffffffffffffffffffffffffff168273ffffffffffffffffffffffffffffffffffffffff161415610d87576040518060c00160405280600015158152602001600115158152602001600015158152602001604051806020016040528060008152508152602001604051806020016040528060008152508152602001600067ffffffffffffffff811115610d4957610d48612964565b5b604051908082528060200260200182016040528015610d7c57816020015b6060815260200190600190039081610d675790505b508152509050610e2c565b6040518060c00160405280600015158152602001600015158152602001600015158152602001604051806020016040528060008152508152602001604051806020016040528060008152508152602001600067ffffffffffffffff811115610df257610df1612964565b5b604051908082528060200260200182016040528015610e2557816020015b6060815260200190600190039081610e105790505b5081525090505b919050565b61010160009054906101000a900473ffffffffffffffffffffffffffffffffffffffff1673ffffffffffffffffffffffffffffffffffffffff1663eaf5d04e3061010354610102888888610e8660fd54611b84565b610e9160fc54611b84565b610e9a8b611b84565b604051602001610eb097969594939291906135ba565b6040516020818303038152906040526040518463ffffffff1660e01b8152600401610edd93929190613693565b600060405180830381600087803b158015610ef757600080fd5b505af1158015610f0b573d6000803e3d6000fd5b5050505050505050565b610f30838383604051806020016040528060008152506112e8565b505050565b6000806099600084815260200190815260200160002060009054906101000a900473ffffffffffffffffffffffffffffffffffffffff169050600073ffffffffffffffffffffffffffffffffffffffff168173ffffffffffffffffffffffffffffffffffffffff161415610fde576040517f08c379a0000000000000000000000000000000000000000000000000000000008152600401610fd59061371d565b60405180910390fd5b80915050919050565b60008073ffffffffffffffffffffffffffffffffffffffff168273ffffffffffffffffffffffffffffffffffffffff161415611058576040517f08c379a000000000000000000000000000000000000000000000000000000000815260040161104f906137af565b60405180910390fd5b609a60008373ffffffffffffffffffffffffffffffffffffffff1673ffffffffffffffffffffffffffffffffffffffff168152602001908152602001600020549050919050565b6110a7611ce5565b6110b16000611d63565b565b60ff80546110c0906130ad565b80601f01602080910402602001604051908101604052809291908181526020018280546110ec906130ad565b80156111395780601f1061110e57610100808354040283529160200191611139565b820191906000526020600020905b81548152906001019060200180831161111c57829003601f168201915b505050505081565b6000603360009054906101000a900473ffffffffffffffffffffffffffffffffffffffff16905090565b60606098805461117a906130ad565b80601f01602080910402602001604051908101604052809291908181526020018280546111a6906130ad565b80156111f35780601f106111c8576101008083540402835291602001916111f3565b820191906000526020600020905b8154815290600101906020018083116111d657829003601f168201915b5050505050905090565b606061010080548060200260200160405190810160405280929190818152602001828054801561128257602002820191906000526020600020905b8160009054906101000a900473ffffffffffffffffffffffffffffffffffffffff1673ffffffffffffffffffffffffffffffffffffffff1681526020019060010190808311611238575b5050505050905090565b610100818154811061129d57600080fd5b906000526020600020016000915054906101000a900473ffffffffffffffffffffffffffffffffffffffff1681565b60fc5481565b6112e46112dd6116ee565b8383611e29565b5050565b6112f96112f36116ee565b836117af565b611338576040517f08c379a000000000000000000000000000000000000000000000000000000000815260040161132f90613275565b60405180910390fd5b61134484848484611f96565b50505050565b6060604051806101400160405280610106815260200161403161010691396101026040518060400160405280600d81526020017f2b57484552452b696425334431000000000000000000000000000000000000008152506040516020016113b3939291906137cf565b6040516020818303038152906040529050919050565b6000609c60008473ffffffffffffffffffffffffffffffffffffffff1673ffffffffffffffffffffffffffffffffffffffff16815260200190815260200160002060008373ffffffffffffffffffffffffffffffffffffffff1673ffffffffffffffffffffffffffffffffffffffff16815260200190815260200160002060009054906101000a900460ff16905092915050565b60fc543410156114a2576040517f08c379a00000000000000000000000000000000000000000000000000000000081526004016114999061384c565b60405180910390fd5b60fd546114af60fb611ff2565b11156114f0576040517f08c379a00000000000000000000000000000000000000000000000000000000081526004016114e7906138b8565b60405180910390fd5b611503336114fe60fb611ff2565b612000565b7f985d112c54c7518a49841fc37640d9ded60112ea7370ca9129c8ed33c3607bc73361152f60fb611ff2565b60405161153d9291906138d8565b60405180910390a161154f60fb61201e565b610100339080600181540180825580915050600190039060005260206000200160009091909190916101000a81548173ffffffffffffffffffffffffffffffffffffffff021916908373ffffffffffffffffffffffffffffffffffffffff160217905550565b6115bd611ce5565b600073ffffffffffffffffffffffffffffffffffffffff168173ffffffffffffffffffffffffffffffffffffffff16141561162d576040517f08c379a000000000000000000000000000000000000000000000000000000000815260040161162490613973565b60405180910390fd5b61163681611d63565b50565b60007f01ffc9a7000000000000000000000000000000000000000000000000000000007bffffffffffffffffffffffffffffffffffffffffffffffffffffffff1916827bffffffffffffffffffffffffffffffffffffffffffffffffffffffff1916149050919050565b6116ac81612034565b6116eb576040517f08c379a00000000000000000000000000000000000000000000000000000000081526004016116e29061371d565b60405180910390fd5b50565b600033905090565b81609b600083815260200190815260200160002060006101000a81548173ffffffffffffffffffffffffffffffffffffffff021916908373ffffffffffffffffffffffffffffffffffffffff160217905550808273ffffffffffffffffffffffffffffffffffffffff1661176983610f35565b73ffffffffffffffffffffffffffffffffffffffff167f8c5be1e5ebec7d5bd14f71427d1e84f3dd0314c0f7b2291e5b200ac8c7c3b92560405160405180910390a45050565b6000806117bb83610f35565b90508073ffffffffffffffffffffffffffffffffffffffff168473ffffffffffffffffffffffffffffffffffffffff1614806117fd57506117fc81856113c9565b5b8061183b57508373ffffffffffffffffffffffffffffffffffffffff16611823846107bc565b73ffffffffffffffffffffffffffffffffffffffff16145b91505092915050565b8273ffffffffffffffffffffffffffffffffffffffff1661186482610f35565b73ffffffffffffffffffffffffffffffffffffffff16146118ba576040517f08c379a00000000000000000000000000000000000000000000000000000000081526004016118b190613a05565b60405180910390fd5b600073ffffffffffffffffffffffffffffffffffffffff168273ffffffffffffffffffffffffffffffffffffffff16141561192a576040517f08c379a000000000000000000000000000000000000000000000000000000000815260040161192190613a97565b60405180910390fd5b6119358383836120a0565b6119406000826116f6565b6001609a60008573ffffffffffffffffffffffffffffffffffffffff1673ffffffffffffffffffffffffffffffffffffffff16815260200190815260200160002060008282546119909190613ae6565b925050819055506001609a60008473ffffffffffffffffffffffffffffffffffffffff1673ffffffffffffffffffffffffffffffffffffffff16815260200190815260200160002060008282546119e79190613b1a565b92505081905550816099600083815260200190815260200160002060006101000a81548173ffffffffffffffffffffffffffffffffffffffff021916908373ffffffffffffffffffffffffffffffffffffffff160217905550808273ffffffffffffffffffffffffffffffffffffffff168473ffffffffffffffffffffffffffffffffffffffff167fddf252ad1be2c89b69c2b068fc378daa952ba7f163c4a11628f55a4df523b3ef60405160405180910390a4611aa68383836120a5565b505050565b6000808273ffffffffffffffffffffffffffffffffffffffff163b119050919050565b600060019054906101000a900460ff16611b1d576040517f08c379a0000000000000000000000000000000000000000000000000000000008152600401611b1490613be2565b60405180910390fd5b611b2782826120aa565b5050565b600060019054906101000a900460ff16611b7a576040517f08c379a0000000000000000000000000000000000000000000000000000000008152600401611b7190613be2565b60405180910390fd5b611b8261212b565b565b60606000821415611bcc576040518060400160405280600181526020017f30000000000000000000000000000000000000000000000000000000000000008152509050611ce0565b600082905060005b60008214611bfe578080611be790613c02565b915050600a82611bf79190613c7a565b9150611bd4565b60008167ffffffffffffffff811115611c1a57611c19612964565b5b6040519080825280601f01601f191660200182016040528015611c4c5781602001600182028036833780820191505090505b5090505b60008514611cd957600182611c659190613ae6565b9150600a85611c749190613cab565b6030611c809190613b1a565b60f81b818381518110611c9657611c95613cdc565b5b60200101907effffffffffffffffffffffffffffffffffffffffffffffffffffffffffffff1916908160001a905350600a85611cd29190613c7a565b9450611c50565b8093505050505b919050565b611ced6116ee565b73ffffffffffffffffffffffffffffffffffffffff16611d0b611141565b73ffffffffffffffffffffffffffffffffffffffff1614611d61576040517f08c379a0000000000000000000000000000000000000000000000000000000008152600401611d5890613d57565b60405180910390fd5b565b6000603360009054906101000a900473ffffffffffffffffffffffffffffffffffffffff16905081603360006101000a81548173ffffffffffffffffffffffffffffffffffffffff021916908373ffffffffffffffffffffffffffffffffffffffff1602179055508173ffffffffffffffffffffffffffffffffffffffff168173ffffffffffffffffffffffffffffffffffffffff167f8be0079c531659141344cd1fd0a4f28419497f9722a3daafe3b4186f6b6457e060405160405180910390a35050565b8173ffffffffffffffffffffffffffffffffffffffff168373ffffffffffffffffffffffffffffffffffffffff161415611e98576040517f08c379a0000000000000000000000000000000000000000000000000000000008152600401611e8f90613dc3565b60405180910390fd5b80609c60008573ffffffffffffffffffffffffffffffffffffffff1673ffffffffffffffffffffffffffffffffffffffff16815260200190815260200160002060008473ffffffffffffffffffffffffffffffffffffffff1673ffffffffffffffffffffffffffffffffffffffff16815260200190815260200160002060006101000a81548160ff0219169083151502179055508173ffffffffffffffffffffffffffffffffffffffff168373ffffffffffffffffffffffffffffffffffffffff167f17307eab39ab6107e8899845ad3d59bd9653f200f220920489ca2b5937696c3183604051611f8991906126dc565b60405180910390a3505050565b611fa1848484611844565b611fad8484848461218c565b611fec576040517f08c379a0000000000000000000000000000000000000000000000000000000008152600401611fe390613e55565b60405180910390fd5b50505050565b600081600001549050919050565b61201a828260405180602001604052806000815250612314565b5050565b6001816000016000828254019250508190555050565b60008073ffffffffffffffffffffffffffffffffffffffff166099600084815260200190815260200160002060009054906101000a900473ffffffffffffffffffffffffffffffffffffffff1673ffffffffffffffffffffffffffffffffffffffff1614159050919050565b505050565b505050565b600060019054906101000a900460ff166120f9576040517f08c379a00000000000000000000000000000000000000000000000000000000081526004016120f090613be2565b60405180910390fd5b816097908051906020019061210f929190612549565b508060989080519060200190612126929190612549565b505050565b600060019054906101000a900460ff1661217a576040517f08c379a000000000000000000000000000000000000000000000000000000000815260040161217190613be2565b60405180910390fd5b61218a6121856116ee565b611d63565b565b60006121ad8473ffffffffffffffffffffffffffffffffffffffff16611aab565b15612307578373ffffffffffffffffffffffffffffffffffffffff1663150b7a026121d66116ee565b8786866040518563ffffffff1660e01b81526004016121f89493929190613eca565b6020604051808303816000875af192505050801561223457506040513d601f19601f820116820180604052508101906122319190613f2b565b60015b6122b7573d8060008114612264576040519150601f19603f3d011682016040523d82523d6000602084013e612269565b606091505b506000815114156122af576040517f08c379a00000000000000000000000000000000000000000000000000000000081526004016122a690613e55565b60405180910390fd5b805181602001fd5b63150b7a0260e01b7bffffffffffffffffffffffffffffffffffffffffffffffffffffffff1916817bffffffffffffffffffffffffffffffffffffffffffffffffffffffff19161491505061230c565b600190505b949350505050565b61231e838361236f565b61232b600084848461218c565b61236a576040517f08c379a000000000000000000000000000000000000000000000000000000000815260040161236190613e55565b60405180910390fd5b505050565b600073ffffffffffffffffffffffffffffffffffffffff168273ffffffffffffffffffffffffffffffffffffffff1614156123df576040517f08c379a00000000000000000000000000000000000000000000000000000000081526004016123d690613fa4565b60405180910390fd5b6123e881612034565b15612428576040517f08c379a000000000000000000000000000000000000000000000000000000000815260040161241f90614010565b60405180910390fd5b612434600083836120a0565b6001609a60008473ffffffffffffffffffffffffffffffffffffffff1673ffffffffffffffffffffffffffffffffffffffff16815260200190815260200160002060008282546124849190613b1a565b92505081905550816099600083815260200190815260200160002060006101000a81548173ffffffffffffffffffffffffffffffffffffffff021916908373ffffffffffffffffffffffffffffffffffffffff160217905550808273ffffffffffffffffffffffffffffffffffffffff16600073ffffffffffffffffffffffffffffffffffffffff167fddf252ad1be2c89b69c2b068fc378daa952ba7f163c4a11628f55a4df523b3ef60405160405180910390a4612545600083836120a5565b5050565b828054612555906130ad565b90600052602060002090601f01602090048101928261257757600085556125be565b82601f1061259057805160ff19168380011785556125be565b828001600101855582156125be579182015b828111156125bd5782518255916020019190600101906125a2565b5b5090506125cb919061260b565b5090565b6040518060c001604052806000151581526020016000151581526020016000151581526020016060815260200160608152602001606081525090565b5b8082111561262457600081600090555060010161260c565b5090565b6000604051905090565b600080fd5b600080fd5b60007fffffffff0000000000000000000000000000000000000000000000000000000082169050919050565b6126718161263c565b811461267c57600080fd5b50565b60008135905061268e81612668565b92915050565b6000602082840312156126aa576126a9612632565b5b60006126b88482850161267f565b91505092915050565b60008115159050919050565b6126d6816126c1565b82525050565b60006020820190506126f160008301846126cd565b92915050565b600073ffffffffffffffffffffffffffffffffffffffff82169050919050565b6000612722826126f7565b9050919050565b61273281612717565b82525050565b600060208201905061274d6000830184612729565b92915050565b600081519050919050565b600082825260208201905092915050565b60005b8381101561278d578082015181840152602081019050612772565b8381111561279c576000848401525b50505050565b6000601f19601f8301169050919050565b60006127be82612753565b6127c8818561275e565b93506127d881856020860161276f565b6127e1816127a2565b840191505092915050565b6000602082019050818103600083015261280681846127b3565b905092915050565b6000819050919050565b6128218161280e565b811461282c57600080fd5b50565b60008135905061283e81612818565b92915050565b60006020828403121561285a57612859612632565b5b60006128688482850161282f565b91505092915050565b61287a81612717565b811461288557600080fd5b50565b60008135905061289781612871565b92915050565b600080604083850312156128b4576128b3612632565b5b60006128c285828601612888565b92505060206128d38582860161282f565b9150509250929050565b6128e68161280e565b82525050565b600060208201905061290160008301846128dd565b92915050565b6000806000606084860312156129205761291f612632565b5b600061292e86828701612888565b935050602061293f86828701612888565b92505060406129508682870161282f565b9150509250925092565b600080fd5b600080fd5b7f4e487b7100000000000000000000000000000000000000000000000000000000600052604160045260246000fd5b61299c826127a2565b810181811067ffffffffffffffff821117156129bb576129ba612964565b5b80604052505050565b60006129ce612628565b90506129da8282612993565b919050565b600067ffffffffffffffff8211156129fa576129f9612964565b5b612a03826127a2565b9050602081019050919050565b82818337600083830152505050565b6000612a32612a2d846129df565b6129c4565b905082815260208101848484011115612a4e57612a4d61295f565b5b612a59848285612a10565b509392505050565b600082601f830112612a7657612a7561295a565b5b8135612a86848260208601612a1f565b91505092915050565b60008060008060808587031215612aa957612aa8612632565b5b6000612ab78782880161282f565b9450506020612ac88782880161282f565b9350506040612ad987828801612888565b925050606085013567ffffffffffffffff811115612afa57612af9612637565b5b612b0687828801612a61565b91505092959194509250565b600060208284031215612b2857612b27612632565b5b6000612b3684828501612888565b91505092915050565b612b48816126c1565b82525050565b600082825260208201905092915050565b6000612b6a82612753565b612b748185612b4e565b9350612b8481856020860161276f565b612b8d816127a2565b840191505092915050565b600081519050919050565b600082825260208201905092915050565b6000819050602082019050919050565b6000612bd08383612b5f565b905092915050565b6000602082019050919050565b6000612bf082612b98565b612bfa8185612ba3565b935083602082028501612c0c85612bb4565b8060005b85811015612c485784840389528151612c298582612bc4565b9450612c3483612bd8565b925060208a01995050600181019050612c10565b50829750879550505050505092915050565b600060c083016000830151612c726000860182612b3f565b506020830151612c856020860182612b3f565b506040830151612c986040860182612b3f565b5060608301518482036060860152612cb08282612b5f565b91505060808301518482036080860152612cca8282612b5f565b91505060a083015184820360a0860152612ce48282612be5565b9150508091505092915050565b60006020820190508181036000830152612d0b8184612c5a565b905092915050565b60008060008060808587031215612d2d57612d2c612632565b5b600085013567ffffffffffffffff811115612d4b57612d4a612637565b5b612d5787828801612a61565b945050602085013567ffffffffffffffff811115612d7857612d77612637565b5b612d8487828801612a61565b935050604085013567ffffffffffffffff811115612da557612da4612637565b5b612db187828801612a61565b9250506060612dc28782880161282f565b91505092959194509250565b600081519050919050565b600082825260208201905092915050565b6000819050602082019050919050565b612e0381612717565b82525050565b6000612e158383612dfa565b60208301905092915050565b6000602082019050919050565b6000612e3982612dce565b612e438185612dd9565b9350612e4e83612dea565b8060005b83811015612e7f578151612e668882612e09565b9750612e7183612e21565b925050600181019050612e52565b5085935050505092915050565b60006020820190508181036000830152612ea68184612e2e565b905092915050565b612eb7816126c1565b8114612ec257600080fd5b50565b600081359050612ed481612eae565b92915050565b60008060408385031215612ef157612ef0612632565b5b6000612eff85828601612888565b9250506020612f1085828601612ec5565b9150509250929050565b600067ffffffffffffffff821115612f3557612f34612964565b5b612f3e826127a2565b9050602081019050919050565b6000612f5e612f5984612f1a565b6129c4565b905082815260208101848484011115612f7a57612f7961295f565b5b612f85848285612a10565b509392505050565b600082601f830112612fa257612fa161295a565b5b8135612fb2848260208601612f4b565b91505092915050565b60008060008060808587031215612fd557612fd4612632565b5b6000612fe387828801612888565b9450506020612ff487828801612888565b93505060406130058782880161282f565b925050606085013567ffffffffffffffff81111561302657613025612637565b5b61303287828801612f8d565b91505092959194509250565b6000806040838503121561305557613054612632565b5b600061306385828601612888565b925050602061307485828601612888565b9150509250929050565b7f4e487b7100000000000000000000000000000000000000000000000000000000600052602260045260246000fd5b600060028204905060018216806130c557607f821691505b602082108114156130d9576130d861307e565b5b50919050565b7f4552433732313a20617070726f76616c20746f2063757272656e74206f776e6560008201527f7200000000000000000000000000000000000000000000000000000000000000602082015250565b600061313b60218361275e565b9150613146826130df565b604082019050919050565b6000602082019050818103600083015261316a8161312e565b9050919050565b7f4552433732313a20617070726f76652063616c6c6572206973206e6f7420746f60008201527f6b656e206f776e6572206e6f7220617070726f76656420666f7220616c6c0000602082015250565b60006131cd603e8361275e565b91506131d882613171565b604082019050919050565b600060208201905081810360008301526131fc816131c0565b9050919050565b7f4552433732313a2063616c6c6572206973206e6f7420746f6b656e206f776e6560008201527f72206e6f7220617070726f766564000000000000000000000000000000000000602082015250565b600061325f602e8361275e565b915061326a82613203565b604082019050919050565b6000602082019050818103600083015261328e81613252565b9050919050565b7f496e697469616c697a61626c653a20636f6e747261637420697320616c72656160008201527f647920696e697469616c697a6564000000000000000000000000000000000000602082015250565b60006132f1602e8361275e565b91506132fc82613295565b604082019050919050565b60006020820190508181036000830152613320816132e4565b9050919050565b6000819050919050565b600060ff82169050919050565b6000819050919050565b600061336361335e61335984613327565b61333e565b613331565b9050919050565b61337381613348565b82525050565b600060208201905061338e600083018461336a565b92915050565b7f494e5345525420494e544f200000000000000000000000000000000000000000815250565b600081905092915050565b60008190508160005260206000209050919050565b600081546133e7816130ad565b6133f181866133ba565b9450600182166000811461340c576001811461341d57613450565b60ff19831686528186019350613450565b613426856133c5565b60005b8381101561344857815481890152600182019150602081019050613429565b838801955050505b50505092915050565b7f202869642c206e616d652c206465736372697074696f6e2c20696d6167652c2060008201527f746f74616c5f737570706c792c2070726963652c2064617465292056414c554560208201527f532028312c202700000000000000000000000000000000000000000000000000604082015250565b60006134db6047836133ba565b91506134e682613459565b604782019050919050565b60006134fc82612753565b61350681856133ba565b935061351681856020860161276f565b80840191505092915050565b7f272c202700000000000000000000000000000000000000000000000000000000815250565b7f272c200000000000000000000000000000000000000000000000000000000000815250565b7f2c20000000000000000000000000000000000000000000000000000000000000815250565b7f2900000000000000000000000000000000000000000000000000000000000000815250565b60006135c582613394565b600c820191506135d5828a6133da565b91506135e0826134ce565b91506135ec82896134f1565b91506135f782613522565b60048201915061360782886134f1565b915061361282613522565b60048201915061362282876134f1565b915061362d82613548565b60038201915061363d82866134f1565b91506136488261356e565b60028201915061365882856134f1565b91506136638261356e565b60028201915061367382846134f1565b915061367e82613594565b60018201915081905098975050505050505050565b60006060820190506136a86000830186612729565b6136b560208301856128dd565b81810360408301526136c781846127b3565b9050949350505050565b7f4552433732313a20696e76616c696420746f6b656e2049440000000000000000600082015250565b600061370760188361275e565b9150613712826136d1565b602082019050919050565b60006020820190508181036000830152613736816136fa565b9050919050565b7f4552433732313a2061646472657373207a65726f206973206e6f74206120766160008201527f6c6964206f776e65720000000000000000000000000000000000000000000000602082015250565b600061379960298361275e565b91506137a48261373d565b604082019050919050565b600060208201905081810360008301526137c88161378c565b9050919050565b60006137db82866134f1565b91506137e782856133da565b91506137f382846134f1565b9150819050949350505050565b7f4e6f7420656e6f756768204d6174696300000000000000000000000000000000600082015250565b600061383660108361275e565b915061384182613800565b602082019050919050565b6000602082019050818103600083015261386581613829565b9050919050565b7f416c6c207469636b65747320617265206d696e74656400000000000000000000600082015250565b60006138a260168361275e565b91506138ad8261386c565b602082019050919050565b600060208201905081810360008301526138d181613895565b9050919050565b60006040820190506138ed6000830185612729565b6138fa60208301846128dd565b9392505050565b7f4f776e61626c653a206e6577206f776e657220697320746865207a65726f206160008201527f6464726573730000000000000000000000000000000000000000000000000000602082015250565b600061395d60268361275e565b915061396882613901565b604082019050919050565b6000602082019050818103600083015261398c81613950565b9050919050565b7f4552433732313a207472616e736665722066726f6d20696e636f72726563742060008201527f6f776e6572000000000000000000000000000000000000000000000000000000602082015250565b60006139ef60258361275e565b91506139fa82613993565b604082019050919050565b60006020820190508181036000830152613a1e816139e2565b9050919050565b7f4552433732313a207472616e7366657220746f20746865207a65726f2061646460008201527f7265737300000000000000000000000000000000000000000000000000000000602082015250565b6000613a8160248361275e565b9150613a8c82613a25565b604082019050919050565b60006020820190508181036000830152613ab081613a74565b9050919050565b7f4e487b7100000000000000000000000000000000000000000000000000000000600052601160045260246000fd5b6000613af18261280e565b9150613afc8361280e565b925082821015613b0f57613b0e613ab7565b5b828203905092915050565b6000613b258261280e565b9150613b308361280e565b9250827fffffffffffffffffffffffffffffffffffffffffffffffffffffffffffffffff03821115613b6557613b64613ab7565b5b828201905092915050565b7f496e697469616c697a61626c653a20636f6e7472616374206973206e6f74206960008201527f6e697469616c697a696e67000000000000000000000000000000000000000000602082015250565b6000613bcc602b8361275e565b9150613bd782613b70565b604082019050919050565b60006020820190508181036000830152613bfb81613bbf565b9050919050565b6000613c0d8261280e565b91507fffffffffffffffffffffffffffffffffffffffffffffffffffffffffffffffff821415613c4057613c3f613ab7565b5b600182019050919050565b7f4e487b7100000000000000000000000000000000000000000000000000000000600052601260045260246000fd5b6000613c858261280e565b9150613c908361280e565b925082613ca057613c9f613c4b565b5b828204905092915050565b6000613cb68261280e565b9150613cc18361280e565b925082613cd157613cd0613c4b565b5b828206905092915050565b7f4e487b7100000000000000000000000000000000000000000000000000000000600052603260045260246000fd5b7f4f776e61626c653a2063616c6c6572206973206e6f7420746865206f776e6572600082015250565b6000613d4160208361275e565b9150613d4c82613d0b565b602082019050919050565b60006020820190508181036000830152613d7081613d34565b9050919050565b7f4552433732313a20617070726f766520746f2063616c6c657200000000000000600082015250565b6000613dad60198361275e565b9150613db882613d77565b602082019050919050565b60006020820190508181036000830152613ddc81613da0565b9050919050565b7f4552433732313a207472616e7366657220746f206e6f6e20455243373231526560008201527f63656976657220696d706c656d656e7465720000000000000000000000000000602082015250565b6000613e3f60328361275e565b9150613e4a82613de3565b604082019050919050565b60006020820190508181036000830152613e6e81613e32565b9050919050565b600081519050919050565b600082825260208201905092915050565b6000613e9c82613e75565b613ea68185613e80565b9350613eb681856020860161276f565b613ebf816127a2565b840191505092915050565b6000608082019050613edf6000830187612729565b613eec6020830186612729565b613ef960408301856128dd565b8181036060830152613f0b8184613e91565b905095945050505050565b600081519050613f2581612668565b92915050565b600060208284031215613f4157613f40612632565b5b6000613f4f84828501613f16565b91505092915050565b7f4552433732313a206d696e7420746f20746865207a65726f2061646472657373600082015250565b6000613f8e60208361275e565b9150613f9982613f58565b602082019050919050565b60006020820190508181036000830152613fbd81613f81565b9050919050565b7f4552433732313a20746f6b656e20616c7265616479206d696e74656400000000600082015250565b6000613ffa601c8361275e565b915061400582613fc4565b602082019050919050565b6000602082019050818103600083015261402981613fed565b905091905056fe68747470733a2f2f746573746e65742e7461626c656c616e642e6e6574776f726b2f71756572793f6d6f64653d6c69737426733d53454c4543542b6a736f6e5f6f626a65637425323825323769642532372532432b69642532432b2532376e616d652532372532432b6e616d652532432b2532376465736372697074696f6e2532372532432b6465736372697074696f6e2532432b253237696d6167652532372532432b696d6167652532432b253237746f74616c5f737570706c792532372532432b746f74616c5f737570706c792532432b25323770726963652532372532432b70726963652532432b253237646174652532372532432b646174652532392b46524f4d2ba26469706673582212204c01eb0cd31e98c5bd4f1ff0cc7a30c637fed8a4f09d08eefd4c888be2da16fc64736f6c634300080c0033",
  "linkReferences": {},
  "deployedLinkReferences": {}
}