{
  "_format": "hh-sol-artifact-1",
  "contractName": "EventNFT",
  "sourceName": "contracts/EventNFT.sol",
  "abi": [
    {
      "anonymous": false,
      "inputs": [
        {
          "indexed": true,
          "internalType": "address",
          "name": "owner",
          "type": "address"
        },
        {
          "indexed": true,
          "internalType": "address",
          "name": "approved",
          "type": "address"
        },
        {
          "indexed": true,
          "internalType": "uint256",
          "name": "tokenId",
          "type": "uint256"
        }
      ],
      "name": "Approval",
      "type": "event"
    },
    {
      "anonymous": false,
      "inputs": [
        {
          "indexed": true,
          "internalType": "address",
          "name": "owner",
          "type": "address"
        },
        {
          "indexed": true,
          "internalType": "address",
          "name": "operator",
          "type": "address"
        },
        {
          "indexed": false,
          "internalType": "bool",
          "name": "approved",
          "type": "bool"
        }
      ],
      "name": "ApprovalForAll",
      "type": "event"
    },
    {
      "anonymous": false,
      "inputs": [
        {
          "indexed": false,
          "internalType": "uint8",
          "name": "version",
          "type": "uint8"
        }
      ],
      "name": "Initialized",
      "type": "event"
    },
    {
      "anonymous": false,
      "inputs": [
        {
          "indexed": true,
          "internalType": "address",
          "name": "previousOwner",
          "type": "address"
        },
        {
          "indexed": true,
          "internalType": "address",
          "name": "newOwner",
          "type": "address"
        }
      ],
      "name": "OwnershipTransferred",
      "type": "event"
    },
    {
      "anonymous": false,
      "inputs": [
        {
          "indexed": false,
          "internalType": "address",
          "name": "",
          "type": "address"
        },
        {
          "indexed": false,
          "internalType": "uint256",
          "name": "",
          "type": "uint256"
        }
      ],
      "name": "TicketBought",
      "type": "event"
    },
    {
      "anonymous": false,
      "inputs": [
        {
          "indexed": true,
          "internalType": "address",
          "name": "from",
          "type": "address"
        },
        {
          "indexed": true,
          "internalType": "address",
          "name": "to",
          "type": "address"
        },
        {
          "indexed": true,
          "internalType": "uint256",
          "name": "tokenId",
          "type": "uint256"
        }
      ],
      "name": "Transfer",
      "type": "event"
    },
    {
      "inputs": [
        {
          "internalType": "address",
          "name": "to",
          "type": "address"
        },
        {
          "internalType": "uint256",
          "name": "tokenId",
          "type": "uint256"
        }
      ],
      "name": "approve",
      "outputs": [],
      "stateMutability": "nonpayable",
      "type": "function"
    },
    {
      "inputs": [
        {
          "internalType": "address",
          "name": "owner",
          "type": "address"
        }
      ],
      "name": "balanceOf",
      "outputs": [
        {
          "internalType": "uint256",
          "name": "",
          "type": "uint256"
        }
      ],
      "stateMutability": "view",
      "type": "function"
    },
    {
      "inputs": [],
      "name": "buyTicket",
      "outputs": [],
      "stateMutability": "nonpayable",
      "type": "function"
    },
    {
      "inputs": [
        {
          "internalType": "uint256",
          "name": "tokenId",
          "type": "uint256"
        }
      ],
      "name": "getApproved",
      "outputs": [
        {
          "internalType": "address",
          "name": "",
          "type": "address"
        }
      ],
      "stateMutability": "view",
      "type": "function"
    },
    {
      "inputs": [
        {
          "internalType": "uint256",
          "name": "_totalSupply",
          "type": "uint256"
        },
        {
          "internalType": "uint256",
          "name": "_price",
          "type": "uint256"
        },
        {
          "internalType": "address",
          "name": "_registery",
          "type": "address"
        }
      ],
      "name": "initialize",
      "outputs": [],
      "stateMutability": "nonpayable",
      "type": "function"
    },
    {
      "inputs": [
        {
          "internalType": "address",
          "name": "owner",
          "type": "address"
        },
        {
          "internalType": "address",
          "name": "operator",
          "type": "address"
        }
      ],
      "name": "isApprovedForAll",
      "outputs": [
        {
          "internalType": "bool",
          "name": "",
          "type": "bool"
        }
      ],
      "stateMutability": "view",
      "type": "function"
    },
    {
      "inputs": [],
      "name": "name",
      "outputs": [
        {
          "internalType": "string",
          "name": "",
          "type": "string"
        }
      ],
      "stateMutability": "view",
      "type": "function"
    },
    {
      "inputs": [],
      "name": "owner",
      "outputs": [
        {
          "internalType": "address",
          "name": "",
          "type": "address"
        }
      ],
      "stateMutability": "view",
      "type": "function"
    },
    {
      "inputs": [
        {
          "internalType": "uint256",
          "name": "tokenId",
          "type": "uint256"
        }
      ],
      "name": "ownerOf",
      "outputs": [
        {
          "internalType": "address",
          "name": "",
          "type": "address"
        }
      ],
      "stateMutability": "view",
      "type": "function"
    },
    {
      "inputs": [],
      "name": "price",
      "outputs": [
        {
          "internalType": "uint256",
          "name": "",
          "type": "uint256"
        }
      ],
      "stateMutability": "view",
      "type": "function"
    },
    {
      "inputs": [],
      "name": "renounceOwnership",
      "outputs": [],
      "stateMutability": "nonpayable",
      "type": "function"
    },
    {
      "inputs": [
        {
          "internalType": "address",
          "name": "from",
          "type": "address"
        },
        {
          "internalType": "address",
          "name": "to",
          "type": "address"
        },
        {
          "internalType": "uint256",
          "name": "tokenId",
          "type": "uint256"
        }
      ],
      "name": "safeTransferFrom",
      "outputs": [],
      "stateMutability": "nonpayable",
      "type": "function"
    },
    {
      "inputs": [
        {
          "internalType": "address",
          "name": "from",
          "type": "address"
        },
        {
          "internalType": "address",
          "name": "to",
          "type": "address"
        },
        {
          "internalType": "uint256",
          "name": "tokenId",
          "type": "uint256"
        },
        {
          "internalType": "bytes",
          "name": "data",
          "type": "bytes"
        }
      ],
      "name": "safeTransferFrom",
      "outputs": [],
      "stateMutability": "nonpayable",
      "type": "function"
    },
    {
      "inputs": [
        {
          "internalType": "address",
          "name": "operator",
          "type": "address"
        },
        {
          "internalType": "bool",
          "name": "approved",
          "type": "bool"
        }
      ],
      "name": "setApprovalForAll",
      "outputs": [],
      "stateMutability": "nonpayable",
      "type": "function"
    },
    {
      "inputs": [
        {
          "internalType": "bytes4",
          "name": "interfaceId",
          "type": "bytes4"
        }
      ],
      "name": "supportsInterface",
      "outputs": [
        {
          "internalType": "bool",
          "name": "",
          "type": "bool"
        }
      ],
      "stateMutability": "view",
      "type": "function"
    },
    {
      "inputs": [],
      "name": "symbol",
      "outputs": [
        {
          "internalType": "string",
          "name": "",
          "type": "string"
        }
      ],
      "stateMutability": "view",
      "type": "function"
    },
    {
      "inputs": [
        {
          "internalType": "uint256",
          "name": "tokenId",
          "type": "uint256"
        }
      ],
      "name": "tokenURI",
      "outputs": [
        {
          "internalType": "string",
          "name": "",
          "type": "string"
        }
      ],
      "stateMutability": "view",
      "type": "function"
    },
    {
      "inputs": [],
      "name": "totalSupply",
      "outputs": [
        {
          "internalType": "uint256",
          "name": "",
          "type": "uint256"
        }
      ],
      "stateMutability": "view",
      "type": "function"
    },
    {
      "inputs": [
        {
          "internalType": "address",
          "name": "from",
          "type": "address"
        },
        {
          "internalType": "address",
          "name": "to",
          "type": "address"
        },
        {
          "internalType": "uint256",
          "name": "tokenId",
          "type": "uint256"
        }
      ],
      "name": "transferFrom",
      "outputs": [],
      "stateMutability": "nonpayable",
      "type": "function"
    },
    {
      "inputs": [
        {
          "internalType": "address",
          "name": "newOwner",
          "type": "address"
        }
      ],
      "name": "transferOwnership",
      "outputs": [],
      "stateMutability": "nonpayable",
      "type": "function"
    },
    {
      "inputs": [],
      "name": "usdcAddress",
      "outputs": [
        {
          "internalType": "address",
          "name": "",
          "type": "address"
        }
      ],
      "stateMutability": "view",
      "type": "function"
    }
  ],
  "bytecode": "0x608060405234801561001057600080fd5b50613459806100206000396000f3fe608060405234801561001057600080fd5b50600436106101375760003560e01c8063715018a6116100b8578063a6ab36f21161007c578063a6ab36f21461032a578063b88d4fde14610346578063c87b56dd14610362578063e985e9c514610392578063edca914c146103c2578063f2fde38b146103cc57610137565b8063715018a6146102aa5780638da5cb5b146102b457806395d89b41146102d2578063a035b1fe146102f0578063a22cb4651461030e57610137565b806318160ddd116100ff57806318160ddd146101f457806323b872dd1461021257806342842e0e1461022e5780636352211e1461024a57806370a082311461027a57610137565b806301ffc9a71461013c57806302d454571461016c57806306fdde031461018a578063081812fc146101a8578063095ea7b3146101d8575b600080fd5b610156600480360381019061015191906120f0565b6103e8565b6040516101639190612138565b60405180910390f35b6101746104ca565b6040516101819190612194565b60405180910390f35b6101926104e2565b60405161019f9190612248565b60405180910390f35b6101c260048036038101906101bd91906122a0565b610574565b6040516101cf9190612194565b60405180910390f35b6101f260048036038101906101ed91906122f9565b6105ba565b005b6101fc6106d2565b6040516102099190612348565b60405180910390f35b61022c60048036038101906102279190612363565b6106d8565b005b61024860048036038101906102439190612363565b610738565b005b610264600480360381019061025f91906122a0565b610758565b6040516102719190612194565b60405180910390f35b610294600480360381019061028f91906123b6565b61080a565b6040516102a19190612348565b60405180910390f35b6102b26108c2565b005b6102bc6108d6565b6040516102c99190612194565b60405180910390f35b6102da610900565b6040516102e79190612248565b60405180910390f35b6102f8610992565b6040516103059190612348565b60405180910390f35b6103286004803603810190610323919061240f565b610998565b005b610344600480360381019061033f919061244f565b6109ae565b005b610360600480360381019061035b91906125d7565b610bb2565b005b61037c600480360381019061037791906122a0565b610c14565b6040516103899190612248565b60405180910390f35b6103ac60048036038101906103a7919061265a565b610d27565b6040516103b99190612138565b60405180910390f35b6103ca610dbb565b005b6103e660048036038101906103e191906123b6565b610fc5565b005b60007f80ac58cd000000000000000000000000000000000000000000000000000000007bffffffffffffffffffffffffffffffffffffffffffffffffffffffff1916827bffffffffffffffffffffffffffffffffffffffffffffffffffffffff191614806104b357507f5b5e139f000000000000000000000000000000000000000000000000000000007bffffffffffffffffffffffffffffffffffffffffffffffffffffffff1916827bffffffffffffffffffffffffffffffffffffffffffffffffffffffff1916145b806104c357506104c282611049565b5b9050919050565b73e11a86849d99f524cac3e7a0ec1241828e332c6281565b6060609780546104f1906126c9565b80601f016020809104026020016040519081016040528092919081815260200182805461051d906126c9565b801561056a5780601f1061053f5761010080835404028352916020019161056a565b820191906000526020600020905b81548152906001019060200180831161054d57829003601f168201915b5050505050905090565b600061057f826110b3565b609b600083815260200190815260200160002060009054906101000a900473ffffffffffffffffffffffffffffffffffffffff169050919050565b60006105c582610758565b90508073ffffffffffffffffffffffffffffffffffffffff168373ffffffffffffffffffffffffffffffffffffffff161415610636576040517f08c379a000000000000000000000000000000000000000000000000000000000815260040161062d9061276d565b60405180910390fd5b8073ffffffffffffffffffffffffffffffffffffffff166106556110fe565b73ffffffffffffffffffffffffffffffffffffffff16148061068457506106838161067e6110fe565b610d27565b5b6106c3576040517f08c379a00000000000000000000000000000000000000000000000000000000081526004016106ba906127ff565b60405180910390fd5b6106cd8383611106565b505050565b60fd5481565b6106e96106e36110fe565b826111bf565b610728576040517f08c379a000000000000000000000000000000000000000000000000000000000815260040161071f90612891565b60405180910390fd5b610733838383611254565b505050565b61075383838360405180602001604052806000815250610bb2565b505050565b6000806099600084815260200190815260200160002060009054906101000a900473ffffffffffffffffffffffffffffffffffffffff169050600073ffffffffffffffffffffffffffffffffffffffff168173ffffffffffffffffffffffffffffffffffffffff161415610801576040517f08c379a00000000000000000000000000000000000000000000000000000000081526004016107f8906128fd565b60405180910390fd5b80915050919050565b60008073ffffffffffffffffffffffffffffffffffffffff168273ffffffffffffffffffffffffffffffffffffffff16141561087b576040517f08c379a00000000000000000000000000000000000000000000000000000000081526004016108729061298f565b60405180910390fd5b609a60008373ffffffffffffffffffffffffffffffffffffffff1673ffffffffffffffffffffffffffffffffffffffff168152602001908152602001600020549050919050565b6108ca6114bb565b6108d46000611539565b565b6000603360009054906101000a900473ffffffffffffffffffffffffffffffffffffffff16905090565b60606098805461090f906126c9565b80601f016020809104026020016040519081016040528092919081815260200182805461093b906126c9565b80156109885780601f1061095d57610100808354040283529160200191610988565b820191906000526020600020905b81548152906001019060200180831161096b57829003601f168201915b5050505050905090565b60fc5481565b6109aa6109a36110fe565b83836115ff565b5050565b60008060019054906101000a900460ff161590508080156109df5750600160008054906101000a900460ff1660ff16105b80610a0c57506109ee3061176c565b158015610a0b5750600160008054906101000a900460ff1660ff16145b5b610a4b576040517f08c379a0000000000000000000000000000000000000000000000000000000008152600401610a4290612a21565b60405180910390fd5b60016000806101000a81548160ff021916908360ff1602179055508015610a88576001600060016101000a81548160ff0219169083151502179055505b610afc6040518060400160405280600881526020017f4576656e744e46540000000000000000000000000000000000000000000000008152506040518060400160405280600681526020017f5449434b4554000000000000000000000000000000000000000000000000000081525061178f565b610b046117ec565b8260fc819055508360fd819055508160fe60006101000a81548173ffffffffffffffffffffffffffffffffffffffff021916908373ffffffffffffffffffffffffffffffffffffffff1602179055508015610bac5760008060016101000a81548160ff0219169083151502179055507f7f26b83ff96e1f2b6a682f133852f6798a09c465da95921460cefb38474024986001604051610ba39190612a93565b60405180910390a15b50505050565b610bc3610bbd6110fe565b836111bf565b610c02576040517f08c379a0000000000000000000000000000000000000000000000000000000008152600401610bf990612891565b60405180910390fd5b610c0e84848484611845565b50505050565b6060610c1f826110b3565b600060c960008481526020019081526020016000208054610c3f906126c9565b80601f0160208091040260200160405190810160405280929190818152602001828054610c6b906126c9565b8015610cb85780601f10610c8d57610100808354040283529160200191610cb8565b820191906000526020600020905b815481529060010190602001808311610c9b57829003601f168201915b505050505090506000610cc96118a1565b9050600081511415610cdf578192505050610d22565b600082511115610d14578082604051602001610cfc929190612aea565b60405160208183030381529060405292505050610d22565b610d1d846118c1565b925050505b919050565b6000609c60008473ffffffffffffffffffffffffffffffffffffffff1673ffffffffffffffffffffffffffffffffffffffff16815260200190815260200160002060008373ffffffffffffffffffffffffffffffffffffffff1673ffffffffffffffffffffffffffffffffffffffff16815260200190815260200160002060009054906101000a900460ff16905092915050565b600073e11a86849d99f524cac3e7a0ec1241828e332c62905060fc548173ffffffffffffffffffffffffffffffffffffffff166370a08231336040518263ffffffff1660e01b8152600401610e109190612194565b602060405180830381865afa158015610e2d573d6000803e3d6000fd5b505050506040513d601f19601f82011682018060405250810190610e519190612b23565b1015610e92576040517f08c379a0000000000000000000000000000000000000000000000000000000008152600401610e8990612b9c565b60405180910390fd5b60fd54610e9f60fb611929565b1115610ee0576040517f08c379a0000000000000000000000000000000000000000000000000000000008152600401610ed790612c08565b60405180910390fd5b8073ffffffffffffffffffffffffffffffffffffffff166323b872dd333060fc546040518463ffffffff1660e01b8152600401610f1f93929190612c28565b6020604051808303816000875af1158015610f3e573d6000803e3d6000fd5b505050506040513d601f19601f82011682018060405250810190610f629190612c74565b50610f7633610f7160fb611929565b611937565b7f985d112c54c7518a49841fc37640d9ded60112ea7370ca9129c8ed33c3607bc733610fa260fb611929565b604051610fb0929190612ca1565b60405180910390a1610fc260fb611955565b50565b610fcd6114bb565b600073ffffffffffffffffffffffffffffffffffffffff168173ffffffffffffffffffffffffffffffffffffffff16141561103d576040517f08c379a000000000000000000000000000000000000000000000000000000000815260040161103490612d3c565b60405180910390fd5b61104681611539565b50565b60007f01ffc9a7000000000000000000000000000000000000000000000000000000007bffffffffffffffffffffffffffffffffffffffffffffffffffffffff1916827bffffffffffffffffffffffffffffffffffffffffffffffffffffffff1916149050919050565b6110bc8161196b565b6110fb576040517f08c379a00000000000000000000000000000000000000000000000000000000081526004016110f2906128fd565b60405180910390fd5b50565b600033905090565b81609b600083815260200190815260200160002060006101000a81548173ffffffffffffffffffffffffffffffffffffffff021916908373ffffffffffffffffffffffffffffffffffffffff160217905550808273ffffffffffffffffffffffffffffffffffffffff1661117983610758565b73ffffffffffffffffffffffffffffffffffffffff167f8c5be1e5ebec7d5bd14f71427d1e84f3dd0314c0f7b2291e5b200ac8c7c3b92560405160405180910390a45050565b6000806111cb83610758565b90508073ffffffffffffffffffffffffffffffffffffffff168473ffffffffffffffffffffffffffffffffffffffff16148061120d575061120c8185610d27565b5b8061124b57508373ffffffffffffffffffffffffffffffffffffffff1661123384610574565b73ffffffffffffffffffffffffffffffffffffffff16145b91505092915050565b8273ffffffffffffffffffffffffffffffffffffffff1661127482610758565b73ffffffffffffffffffffffffffffffffffffffff16146112ca576040517f08c379a00000000000000000000000000000000000000000000000000000000081526004016112c190612dce565b60405180910390fd5b600073ffffffffffffffffffffffffffffffffffffffff168273ffffffffffffffffffffffffffffffffffffffff16141561133a576040517f08c379a000000000000000000000000000000000000000000000000000000000815260040161133190612e60565b60405180910390fd5b6113458383836119d7565b611350600082611106565b6001609a60008573ffffffffffffffffffffffffffffffffffffffff1673ffffffffffffffffffffffffffffffffffffffff16815260200190815260200160002060008282546113a09190612eaf565b925050819055506001609a60008473ffffffffffffffffffffffffffffffffffffffff1673ffffffffffffffffffffffffffffffffffffffff16815260200190815260200160002060008282546113f79190612ee3565b92505081905550816099600083815260200190815260200160002060006101000a81548173ffffffffffffffffffffffffffffffffffffffff021916908373ffffffffffffffffffffffffffffffffffffffff160217905550808273ffffffffffffffffffffffffffffffffffffffff168473ffffffffffffffffffffffffffffffffffffffff167fddf252ad1be2c89b69c2b068fc378daa952ba7f163c4a11628f55a4df523b3ef60405160405180910390a46114b68383836119dc565b505050565b6114c36110fe565b73ffffffffffffffffffffffffffffffffffffffff166114e16108d6565b73ffffffffffffffffffffffffffffffffffffffff1614611537576040517f08c379a000000000000000000000000000000000000000000000000000000000815260040161152e90612f85565b60405180910390fd5b565b6000603360009054906101000a900473ffffffffffffffffffffffffffffffffffffffff16905081603360006101000a81548173ffffffffffffffffffffffffffffffffffffffff021916908373ffffffffffffffffffffffffffffffffffffffff1602179055508173ffffffffffffffffffffffffffffffffffffffff168173ffffffffffffffffffffffffffffffffffffffff167f8be0079c531659141344cd1fd0a4f28419497f9722a3daafe3b4186f6b6457e060405160405180910390a35050565b8173ffffffffffffffffffffffffffffffffffffffff168373ffffffffffffffffffffffffffffffffffffffff16141561166e576040517f08c379a000000000000000000000000000000000000000000000000000000000815260040161166590612ff1565b60405180910390fd5b80609c60008573ffffffffffffffffffffffffffffffffffffffff1673ffffffffffffffffffffffffffffffffffffffff16815260200190815260200160002060008473ffffffffffffffffffffffffffffffffffffffff1673ffffffffffffffffffffffffffffffffffffffff16815260200190815260200160002060006101000a81548160ff0219169083151502179055508173ffffffffffffffffffffffffffffffffffffffff168373ffffffffffffffffffffffffffffffffffffffff167f17307eab39ab6107e8899845ad3d59bd9653f200f220920489ca2b5937696c318360405161175f9190612138565b60405180910390a3505050565b6000808273ffffffffffffffffffffffffffffffffffffffff163b119050919050565b600060019054906101000a900460ff166117de576040517f08c379a00000000000000000000000000000000000000000000000000000000081526004016117d590613083565b60405180910390fd5b6117e882826119e1565b5050565b600060019054906101000a900460ff1661183b576040517f08c379a000000000000000000000000000000000000000000000000000000000815260040161183290613083565b60405180910390fd5b611843611a62565b565b611850848484611254565b61185c84848484611ac3565b61189b576040517f08c379a000000000000000000000000000000000000000000000000000000000815260040161189290613115565b60405180910390fd5b50505050565b60606040518060600160405280602a81526020016133fa602a9139905090565b60606118cc826110b3565b60006118d66118a1565b905060008151116118f65760405180602001604052806000815250611921565b8061190084611c4b565b604051602001611911929190612aea565b6040516020818303038152906040525b915050919050565b600081600001549050919050565b611951828260405180602001604052806000815250611dac565b5050565b6001816000016000828254019250508190555050565b60008073ffffffffffffffffffffffffffffffffffffffff166099600084815260200190815260200160002060009054906101000a900473ffffffffffffffffffffffffffffffffffffffff1673ffffffffffffffffffffffffffffffffffffffff1614159050919050565b505050565b505050565b600060019054906101000a900460ff16611a30576040517f08c379a0000000000000000000000000000000000000000000000000000000008152600401611a2790613083565b60405180910390fd5b8160979080519060200190611a46929190611fe1565b508060989080519060200190611a5d929190611fe1565b505050565b600060019054906101000a900460ff16611ab1576040517f08c379a0000000000000000000000000000000000000000000000000000000008152600401611aa890613083565b60405180910390fd5b611ac1611abc6110fe565b611539565b565b6000611ae48473ffffffffffffffffffffffffffffffffffffffff1661176c565b15611c3e578373ffffffffffffffffffffffffffffffffffffffff1663150b7a02611b0d6110fe565b8786866040518563ffffffff1660e01b8152600401611b2f949392919061318a565b6020604051808303816000875af1925050508015611b6b57506040513d601f19601f82011682018060405250810190611b6891906131eb565b60015b611bee573d8060008114611b9b576040519150601f19603f3d011682016040523d82523d6000602084013e611ba0565b606091505b50600081511415611be6576040517f08c379a0000000000000000000000000000000000000000000000000000000008152600401611bdd90613115565b60405180910390fd5b805181602001fd5b63150b7a0260e01b7bffffffffffffffffffffffffffffffffffffffffffffffffffffffff1916817bffffffffffffffffffffffffffffffffffffffffffffffffffffffff191614915050611c43565b600190505b949350505050565b60606000821415611c93576040518060400160405280600181526020017f30000000000000000000000000000000000000000000000000000000000000008152509050611da7565b600082905060005b60008214611cc5578080611cae90613218565b915050600a82611cbe9190613290565b9150611c9b565b60008167ffffffffffffffff811115611ce157611ce06124ac565b5b6040519080825280601f01601f191660200182016040528015611d135781602001600182028036833780820191505090505b5090505b60008514611da057600182611d2c9190612eaf565b9150600a85611d3b91906132c1565b6030611d479190612ee3565b60f81b818381518110611d5d57611d5c6132f2565b5b60200101907effffffffffffffffffffffffffffffffffffffffffffffffffffffffffffff1916908160001a905350600a85611d999190613290565b9450611d17565b8093505050505b919050565b611db68383611e07565b611dc36000848484611ac3565b611e02576040517f08c379a0000000000000000000000000000000000000000000000000000000008152600401611df990613115565b60405180910390fd5b505050565b600073ffffffffffffffffffffffffffffffffffffffff168273ffffffffffffffffffffffffffffffffffffffff161415611e77576040517f08c379a0000000000000000000000000000000000000000000000000000000008152600401611e6e9061336d565b60405180910390fd5b611e808161196b565b15611ec0576040517f08c379a0000000000000000000000000000000000000000000000000000000008152600401611eb7906133d9565b60405180910390fd5b611ecc600083836119d7565b6001609a60008473ffffffffffffffffffffffffffffffffffffffff1673ffffffffffffffffffffffffffffffffffffffff1681526020019081526020016000206000828254611f1c9190612ee3565b92505081905550816099600083815260200190815260200160002060006101000a81548173ffffffffffffffffffffffffffffffffffffffff021916908373ffffffffffffffffffffffffffffffffffffffff160217905550808273ffffffffffffffffffffffffffffffffffffffff16600073ffffffffffffffffffffffffffffffffffffffff167fddf252ad1be2c89b69c2b068fc378daa952ba7f163c4a11628f55a4df523b3ef60405160405180910390a4611fdd600083836119dc565b5050565b828054611fed906126c9565b90600052602060002090601f01602090048101928261200f5760008555612056565b82601f1061202857805160ff1916838001178555612056565b82800160010185558215612056579182015b8281111561205557825182559160200191906001019061203a565b5b5090506120639190612067565b5090565b5b80821115612080576000816000905550600101612068565b5090565b6000604051905090565b600080fd5b600080fd5b60007fffffffff0000000000000000000000000000000000000000000000000000000082169050919050565b6120cd81612098565b81146120d857600080fd5b50565b6000813590506120ea816120c4565b92915050565b6000602082840312156121065761210561208e565b5b6000612114848285016120db565b91505092915050565b60008115159050919050565b6121328161211d565b82525050565b600060208201905061214d6000830184612129565b92915050565b600073ffffffffffffffffffffffffffffffffffffffff82169050919050565b600061217e82612153565b9050919050565b61218e81612173565b82525050565b60006020820190506121a96000830184612185565b92915050565b600081519050919050565b600082825260208201905092915050565b60005b838110156121e95780820151818401526020810190506121ce565b838111156121f8576000848401525b50505050565b6000601f19601f8301169050919050565b600061221a826121af565b61222481856121ba565b93506122348185602086016121cb565b61223d816121fe565b840191505092915050565b60006020820190508181036000830152612262818461220f565b905092915050565b6000819050919050565b61227d8161226a565b811461228857600080fd5b50565b60008135905061229a81612274565b92915050565b6000602082840312156122b6576122b561208e565b5b60006122c48482850161228b565b91505092915050565b6122d681612173565b81146122e157600080fd5b50565b6000813590506122f3816122cd565b92915050565b600080604083850312156123105761230f61208e565b5b600061231e858286016122e4565b925050602061232f8582860161228b565b9150509250929050565b6123428161226a565b82525050565b600060208201905061235d6000830184612339565b92915050565b60008060006060848603121561237c5761237b61208e565b5b600061238a868287016122e4565b935050602061239b868287016122e4565b92505060406123ac8682870161228b565b9150509250925092565b6000602082840312156123cc576123cb61208e565b5b60006123da848285016122e4565b91505092915050565b6123ec8161211d565b81146123f757600080fd5b50565b600081359050612409816123e3565b92915050565b600080604083850312156124265761242561208e565b5b6000612434858286016122e4565b9250506020612445858286016123fa565b9150509250929050565b6000806000606084860312156124685761246761208e565b5b60006124768682870161228b565b93505060206124878682870161228b565b9250506040612498868287016122e4565b9150509250925092565b600080fd5b600080fd5b7f4e487b7100000000000000000000000000000000000000000000000000000000600052604160045260246000fd5b6124e4826121fe565b810181811067ffffffffffffffff82111715612503576125026124ac565b5b80604052505050565b6000612516612084565b905061252282826124db565b919050565b600067ffffffffffffffff821115612542576125416124ac565b5b61254b826121fe565b9050602081019050919050565b82818337600083830152505050565b600061257a61257584612527565b61250c565b905082815260208101848484011115612596576125956124a7565b5b6125a1848285612558565b509392505050565b600082601f8301126125be576125bd6124a2565b5b81356125ce848260208601612567565b91505092915050565b600080600080608085870312156125f1576125f061208e565b5b60006125ff878288016122e4565b9450506020612610878288016122e4565b93505060406126218782880161228b565b925050606085013567ffffffffffffffff81111561264257612641612093565b5b61264e878288016125a9565b91505092959194509250565b600080604083850312156126715761267061208e565b5b600061267f858286016122e4565b9250506020612690858286016122e4565b9150509250929050565b7f4e487b7100000000000000000000000000000000000000000000000000000000600052602260045260246000fd5b600060028204905060018216806126e157607f821691505b602082108114156126f5576126f461269a565b5b50919050565b7f4552433732313a20617070726f76616c20746f2063757272656e74206f776e6560008201527f7200000000000000000000000000000000000000000000000000000000000000602082015250565b60006127576021836121ba565b9150612762826126fb565b604082019050919050565b600060208201905081810360008301526127868161274a565b9050919050565b7f4552433732313a20617070726f76652063616c6c6572206973206e6f7420746f60008201527f6b656e206f776e6572206e6f7220617070726f76656420666f7220616c6c0000602082015250565b60006127e9603e836121ba565b91506127f48261278d565b604082019050919050565b60006020820190508181036000830152612818816127dc565b9050919050565b7f4552433732313a2063616c6c6572206973206e6f7420746f6b656e206f776e6560008201527f72206e6f7220617070726f766564000000000000000000000000000000000000602082015250565b600061287b602e836121ba565b91506128868261281f565b604082019050919050565b600060208201905081810360008301526128aa8161286e565b9050919050565b7f4552433732313a20696e76616c696420746f6b656e2049440000000000000000600082015250565b60006128e76018836121ba565b91506128f2826128b1565b602082019050919050565b60006020820190508181036000830152612916816128da565b9050919050565b7f4552433732313a2061646472657373207a65726f206973206e6f74206120766160008201527f6c6964206f776e65720000000000000000000000000000000000000000000000602082015250565b60006129796029836121ba565b91506129848261291d565b604082019050919050565b600060208201905081810360008301526129a88161296c565b9050919050565b7f496e697469616c697a61626c653a20636f6e747261637420697320616c72656160008201527f647920696e697469616c697a6564000000000000000000000000000000000000602082015250565b6000612a0b602e836121ba565b9150612a16826129af565b604082019050919050565b60006020820190508181036000830152612a3a816129fe565b9050919050565b6000819050919050565b600060ff82169050919050565b6000819050919050565b6000612a7d612a78612a7384612a41565b612a58565b612a4b565b9050919050565b612a8d81612a62565b82525050565b6000602082019050612aa86000830184612a84565b92915050565b600081905092915050565b6000612ac4826121af565b612ace8185612aae565b9350612ade8185602086016121cb565b80840191505092915050565b6000612af68285612ab9565b9150612b028284612ab9565b91508190509392505050565b600081519050612b1d81612274565b92915050565b600060208284031215612b3957612b3861208e565b5b6000612b4784828501612b0e565b91505092915050565b7f4e6f7420656e6f75676820555344430000000000000000000000000000000000600082015250565b6000612b86600f836121ba565b9150612b9182612b50565b602082019050919050565b60006020820190508181036000830152612bb581612b79565b9050919050565b7f416c6c207469636b65747320617265206d696e74656400000000000000000000600082015250565b6000612bf26016836121ba565b9150612bfd82612bbc565b602082019050919050565b60006020820190508181036000830152612c2181612be5565b9050919050565b6000606082019050612c3d6000830186612185565b612c4a6020830185612185565b612c576040830184612339565b949350505050565b600081519050612c6e816123e3565b92915050565b600060208284031215612c8a57612c8961208e565b5b6000612c9884828501612c5f565b91505092915050565b6000604082019050612cb66000830185612185565b612cc36020830184612339565b9392505050565b7f4f776e61626c653a206e6577206f776e657220697320746865207a65726f206160008201527f6464726573730000000000000000000000000000000000000000000000000000602082015250565b6000612d266026836121ba565b9150612d3182612cca565b604082019050919050565b60006020820190508181036000830152612d5581612d19565b9050919050565b7f4552433732313a207472616e736665722066726f6d20696e636f72726563742060008201527f6f776e6572000000000000000000000000000000000000000000000000000000602082015250565b6000612db86025836121ba565b9150612dc382612d5c565b604082019050919050565b60006020820190508181036000830152612de781612dab565b9050919050565b7f4552433732313a207472616e7366657220746f20746865207a65726f2061646460008201527f7265737300000000000000000000000000000000000000000000000000000000602082015250565b6000612e4a6024836121ba565b9150612e5582612dee565b604082019050919050565b60006020820190508181036000830152612e7981612e3d565b9050919050565b7f4e487b7100000000000000000000000000000000000000000000000000000000600052601160045260246000fd5b6000612eba8261226a565b9150612ec58361226a565b925082821015612ed857612ed7612e80565b5b828203905092915050565b6000612eee8261226a565b9150612ef98361226a565b9250827fffffffffffffffffffffffffffffffffffffffffffffffffffffffffffffffff03821115612f2e57612f2d612e80565b5b828201905092915050565b7f4f776e61626c653a2063616c6c6572206973206e6f7420746865206f776e6572600082015250565b6000612f6f6020836121ba565b9150612f7a82612f39565b602082019050919050565b60006020820190508181036000830152612f9e81612f62565b9050919050565b7f4552433732313a20617070726f766520746f2063616c6c657200000000000000600082015250565b6000612fdb6019836121ba565b9150612fe682612fa5565b602082019050919050565b6000602082019050818103600083015261300a81612fce565b9050919050565b7f496e697469616c697a61626c653a20636f6e7472616374206973206e6f74206960008201527f6e697469616c697a696e67000000000000000000000000000000000000000000602082015250565b600061306d602b836121ba565b915061307882613011565b604082019050919050565b6000602082019050818103600083015261309c81613060565b9050919050565b7f4552433732313a207472616e7366657220746f206e6f6e20455243373231526560008201527f63656976657220696d706c656d656e7465720000000000000000000000000000602082015250565b60006130ff6032836121ba565b915061310a826130a3565b604082019050919050565b6000602082019050818103600083015261312e816130f2565b9050919050565b600081519050919050565b600082825260208201905092915050565b600061315c82613135565b6131668185613140565b93506131768185602086016121cb565b61317f816121fe565b840191505092915050565b600060808201905061319f6000830187612185565b6131ac6020830186612185565b6131b96040830185612339565b81810360608301526131cb8184613151565b905095945050505050565b6000815190506131e5816120c4565b92915050565b6000602082840312156132015761320061208e565b5b600061320f848285016131d6565b91505092915050565b60006132238261226a565b91507fffffffffffffffffffffffffffffffffffffffffffffffffffffffffffffffff82141561325657613255612e80565b5b600182019050919050565b7f4e487b7100000000000000000000000000000000000000000000000000000000600052601260045260246000fd5b600061329b8261226a565b91506132a68361226a565b9250826132b6576132b5613261565b5b828204905092915050565b60006132cc8261226a565b91506132d78361226a565b9250826132e7576132e6613261565b5b828206905092915050565b7f4e487b7100000000000000000000000000000000000000000000000000000000600052603260045260246000fd5b7f4552433732313a206d696e7420746f20746865207a65726f2061646472657373600082015250565b60006133576020836121ba565b915061336282613321565b602082019050919050565b600060208201905081810360008301526133868161334a565b9050919050565b7f4552433732313a20746f6b656e20616c7265616479206d696e74656400000000600082015250565b60006133c3601c836121ba565b91506133ce8261338d565b602082019050919050565b600060208201905081810360008301526133f2816133b6565b905091905056fe68747470733a2f2f746573746e65742e7461626c656c616e642e6e6574776f726b2f71756572793f733da2646970667358221220b4446b30d34ba9636e371fd728671307412ddc772f4a637e6f7927b1daa082b664736f6c634300080c0033",
  "linkReferences": {},
  "deployedLinkReferences": {}
}