{
  "_format": "hh-sol-artifact-1",
  "contractName": "EventNFT",
  "sourceName": "contracts/EventNFT.sol",
  "abi": [
    {
      "anonymous": false,
      "inputs": [
        {
          "indexed": true,
          "internalType": "address",
          "name": "owner",
          "type": "address"
        },
        {
          "indexed": true,
          "internalType": "address",
          "name": "approved",
          "type": "address"
        },
        {
          "indexed": true,
          "internalType": "uint256",
          "name": "tokenId",
          "type": "uint256"
        }
      ],
      "name": "Approval",
      "type": "event"
    },
    {
      "anonymous": false,
      "inputs": [
        {
          "indexed": true,
          "internalType": "address",
          "name": "owner",
          "type": "address"
        },
        {
          "indexed": true,
          "internalType": "address",
          "name": "operator",
          "type": "address"
        },
        {
          "indexed": false,
          "internalType": "bool",
          "name": "approved",
          "type": "bool"
        }
      ],
      "name": "ApprovalForAll",
      "type": "event"
    },
    {
      "anonymous": false,
      "inputs": [
        {
          "indexed": false,
          "internalType": "uint8",
          "name": "version",
          "type": "uint8"
        }
      ],
      "name": "Initialized",
      "type": "event"
    },
    {
      "anonymous": false,
      "inputs": [
        {
          "indexed": true,
          "internalType": "address",
          "name": "previousOwner",
          "type": "address"
        },
        {
          "indexed": true,
          "internalType": "address",
          "name": "newOwner",
          "type": "address"
        }
      ],
      "name": "OwnershipTransferred",
      "type": "event"
    },
    {
      "anonymous": false,
      "inputs": [
        {
          "indexed": false,
          "internalType": "address",
          "name": "",
          "type": "address"
        },
        {
          "indexed": false,
          "internalType": "uint256",
          "name": "",
          "type": "uint256"
        }
      ],
      "name": "TicketBought",
      "type": "event"
    },
    {
      "anonymous": false,
      "inputs": [
        {
          "indexed": true,
          "internalType": "address",
          "name": "from",
          "type": "address"
        },
        {
          "indexed": true,
          "internalType": "address",
          "name": "to",
          "type": "address"
        },
        {
          "indexed": true,
          "internalType": "uint256",
          "name": "tokenId",
          "type": "uint256"
        }
      ],
      "name": "Transfer",
      "type": "event"
    },
    {
      "inputs": [
        {
          "internalType": "address",
          "name": "to",
          "type": "address"
        },
        {
          "internalType": "uint256",
          "name": "tokenId",
          "type": "uint256"
        }
      ],
      "name": "approve",
      "outputs": [],
      "stateMutability": "nonpayable",
      "type": "function"
    },
    {
      "inputs": [
        {
          "internalType": "address",
          "name": "owner",
          "type": "address"
        }
      ],
      "name": "balanceOf",
      "outputs": [
        {
          "internalType": "uint256",
          "name": "",
          "type": "uint256"
        }
      ],
      "stateMutability": "view",
      "type": "function"
    },
    {
      "inputs": [],
      "name": "buyTicket",
      "outputs": [],
      "stateMutability": "nonpayable",
      "type": "function"
    },
    {
      "inputs": [],
      "name": "creator",
      "outputs": [
        {
          "internalType": "address",
          "name": "",
          "type": "address"
        }
      ],
      "stateMutability": "view",
      "type": "function"
    },
    {
      "inputs": [
        {
          "internalType": "uint256",
          "name": "tokenId",
          "type": "uint256"
        }
      ],
      "name": "getApproved",
      "outputs": [
        {
          "internalType": "address",
          "name": "",
          "type": "address"
        }
      ],
      "stateMutability": "view",
      "type": "function"
    },
    {
      "inputs": [
        {
          "internalType": "address",
          "name": "sender",
          "type": "address"
        }
      ],
      "name": "getPolicy",
      "outputs": [
        {
          "components": [
            {
              "internalType": "bool",
              "name": "allowInsert",
              "type": "bool"
            },
            {
              "internalType": "bool",
              "name": "allowUpdate",
              "type": "bool"
            },
            {
              "internalType": "bool",
              "name": "allowDelete",
              "type": "bool"
            },
            {
              "internalType": "string",
              "name": "whereClause",
              "type": "string"
            },
            {
              "internalType": "string",
              "name": "withCheck",
              "type": "string"
            },
            {
              "internalType": "string[]",
              "name": "updatableColumns",
              "type": "string[]"
            }
          ],
          "internalType": "struct ITablelandController.Policy",
          "name": "",
          "type": "tuple"
        }
      ],
      "stateMutability": "payable",
      "type": "function"
    },
    {
      "inputs": [
        {
          "internalType": "uint256",
          "name": "_totalSupply",
          "type": "uint256"
        },
        {
          "internalType": "uint256",
          "name": "_price",
          "type": "uint256"
        },
        {
          "internalType": "address",
          "name": "_registery",
          "type": "address"
        },
        {
          "internalType": "address",
          "name": "_creator",
          "type": "address"
        }
      ],
      "name": "initialize",
      "outputs": [],
      "stateMutability": "nonpayable",
      "type": "function"
    },
    {
      "inputs": [
        {
          "internalType": "address",
          "name": "owner",
          "type": "address"
        },
        {
          "internalType": "address",
          "name": "operator",
          "type": "address"
        }
      ],
      "name": "isApprovedForAll",
      "outputs": [
        {
          "internalType": "bool",
          "name": "",
          "type": "bool"
        }
      ],
      "stateMutability": "view",
      "type": "function"
    },
    {
      "inputs": [],
      "name": "name",
      "outputs": [
        {
          "internalType": "string",
          "name": "",
          "type": "string"
        }
      ],
      "stateMutability": "view",
      "type": "function"
    },
    {
      "inputs": [],
      "name": "owner",
      "outputs": [
        {
          "internalType": "address",
          "name": "",
          "type": "address"
        }
      ],
      "stateMutability": "view",
      "type": "function"
    },
    {
      "inputs": [
        {
          "internalType": "uint256",
          "name": "tokenId",
          "type": "uint256"
        }
      ],
      "name": "ownerOf",
      "outputs": [
        {
          "internalType": "address",
          "name": "",
          "type": "address"
        }
      ],
      "stateMutability": "view",
      "type": "function"
    },
    {
      "inputs": [],
      "name": "price",
      "outputs": [
        {
          "internalType": "uint256",
          "name": "",
          "type": "uint256"
        }
      ],
      "stateMutability": "view",
      "type": "function"
    },
    {
      "inputs": [],
      "name": "renounceOwnership",
      "outputs": [],
      "stateMutability": "nonpayable",
      "type": "function"
    },
    {
      "inputs": [
        {
          "internalType": "address",
          "name": "from",
          "type": "address"
        },
        {
          "internalType": "address",
          "name": "to",
          "type": "address"
        },
        {
          "internalType": "uint256",
          "name": "tokenId",
          "type": "uint256"
        }
      ],
      "name": "safeTransferFrom",
      "outputs": [],
      "stateMutability": "nonpayable",
      "type": "function"
    },
    {
      "inputs": [
        {
          "internalType": "address",
          "name": "from",
          "type": "address"
        },
        {
          "internalType": "address",
          "name": "to",
          "type": "address"
        },
        {
          "internalType": "uint256",
          "name": "tokenId",
          "type": "uint256"
        },
        {
          "internalType": "bytes",
          "name": "data",
          "type": "bytes"
        }
      ],
      "name": "safeTransferFrom",
      "outputs": [],
      "stateMutability": "nonpayable",
      "type": "function"
    },
    {
      "inputs": [
        {
          "internalType": "address",
          "name": "operator",
          "type": "address"
        },
        {
          "internalType": "bool",
          "name": "approved",
          "type": "bool"
        }
      ],
      "name": "setApprovalForAll",
      "outputs": [],
      "stateMutability": "nonpayable",
      "type": "function"
    },
    {
      "inputs": [
        {
          "internalType": "string",
          "name": "_name",
          "type": "string"
        },
        {
          "internalType": "string",
          "name": "_description",
          "type": "string"
        },
        {
          "internalType": "string",
          "name": "_image",
          "type": "string"
        },
        {
          "internalType": "uint256",
          "name": "_date",
          "type": "uint256"
        }
      ],
      "name": "setMetadata",
      "outputs": [],
      "stateMutability": "nonpayable",
      "type": "function"
    },
    {
      "inputs": [
        {
          "internalType": "bytes4",
          "name": "interfaceId",
          "type": "bytes4"
        }
      ],
      "name": "supportsInterface",
      "outputs": [
        {
          "internalType": "bool",
          "name": "",
          "type": "bool"
        }
      ],
      "stateMutability": "view",
      "type": "function"
    },
    {
      "inputs": [],
      "name": "symbol",
      "outputs": [
        {
          "internalType": "string",
          "name": "",
          "type": "string"
        }
      ],
      "stateMutability": "view",
      "type": "function"
    },
    {
      "inputs": [
        {
          "internalType": "uint256",
          "name": "tokenId",
          "type": "uint256"
        }
      ],
      "name": "tokenURI",
      "outputs": [
        {
          "internalType": "string",
          "name": "",
          "type": "string"
        }
      ],
      "stateMutability": "view",
      "type": "function"
    },
    {
      "inputs": [],
      "name": "totalSupply",
      "outputs": [
        {
          "internalType": "uint256",
          "name": "",
          "type": "uint256"
        }
      ],
      "stateMutability": "view",
      "type": "function"
    },
    {
      "inputs": [
        {
          "internalType": "address",
          "name": "from",
          "type": "address"
        },
        {
          "internalType": "address",
          "name": "to",
          "type": "address"
        },
        {
          "internalType": "uint256",
          "name": "tokenId",
          "type": "uint256"
        }
      ],
      "name": "transferFrom",
      "outputs": [],
      "stateMutability": "nonpayable",
      "type": "function"
    },
    {
      "inputs": [
        {
          "internalType": "address",
          "name": "newOwner",
          "type": "address"
        }
      ],
      "name": "transferOwnership",
      "outputs": [],
      "stateMutability": "nonpayable",
      "type": "function"
    },
    {
      "inputs": [],
      "name": "usdcAddress",
      "outputs": [
        {
          "internalType": "address",
          "name": "",
          "type": "address"
        }
      ],
      "stateMutability": "view",
      "type": "function"
    }
  ],
  "bytecode": "0x608060405234801561001057600080fd5b506142f7806100206000396000f3fe60806040526004361061014b5760003560e01c80636352211e116100b6578063a22cb4651161006f578063a22cb46514610485578063b88d4fde146104ae578063c87b56dd146104d7578063e985e9c514610514578063edca914c14610551578063f2fde38b146105685761014b565b80636352211e1461037357806370a08231146103b0578063715018a6146103ed5780638da5cb5b1461040457806395d89b411461042f578063a035b1fe1461045a5761014b565b8063095ea7b311610108578063095ea7b31461027457806318160ddd1461029d57806323b872dd146102c85780633791dc6a146102f15780633ed2dad61461032157806342842e0e1461034a5761014b565b8063019e27291461015057806301ffc9a71461017957806302d05d3f146101b657806302d45457146101e157806306fdde031461020c578063081812fc14610237575b600080fd5b34801561015c57600080fd5b50610177600480360381019061017291906126ef565b610591565b005b34801561018557600080fd5b506101a0600480360381019061019b91906127ae565b6108f1565b6040516101ad91906127f6565b60405180910390f35b3480156101c257600080fd5b506101cb6109d3565b6040516101d89190612820565b60405180910390f35b3480156101ed57600080fd5b506101f66109f9565b6040516102039190612820565b60405180910390f35b34801561021857600080fd5b50610221610a11565b60405161022e91906128d4565b60405180910390f35b34801561024357600080fd5b5061025e600480360381019061025991906128f6565b610aa3565b60405161026b9190612820565b60405180910390f35b34801561028057600080fd5b5061029b60048036038101906102969190612923565b610ae9565b005b3480156102a957600080fd5b506102b2610c01565b6040516102bf9190612972565b60405180910390f35b3480156102d457600080fd5b506102ef60048036038101906102ea919061298d565b610c07565b005b61030b600480360381019061030691906129e0565b610c67565b6040516103189190612bbf565b60405180910390f35b34801561032d57600080fd5b5061034860048036038101906103439190612d16565b610efc565b005b34801561035657600080fd5b50610371600480360381019061036c919061298d565b610fdf565b005b34801561037f57600080fd5b5061039a600480360381019061039591906128f6565b610fff565b6040516103a79190612820565b60405180910390f35b3480156103bc57600080fd5b506103d760048036038101906103d291906129e0565b6110b1565b6040516103e49190612972565b60405180910390f35b3480156103f957600080fd5b50610402611169565b005b34801561041057600080fd5b5061041961117d565b6040516104269190612820565b60405180910390f35b34801561043b57600080fd5b506104446111a7565b60405161045191906128d4565b60405180910390f35b34801561046657600080fd5b5061046f611239565b60405161047c9190612972565b60405180910390f35b34801561049157600080fd5b506104ac60048036038101906104a79190612dfd565b61123f565b005b3480156104ba57600080fd5b506104d560048036038101906104d09190612ede565b611255565b005b3480156104e357600080fd5b506104fe60048036038101906104f991906128f6565b6112b7565b60405161050b91906128d4565b60405180910390f35b34801561052057600080fd5b5061053b60048036038101906105369190612f61565b611336565b60405161054891906127f6565b60405180910390f35b34801561055d57600080fd5b506105666113ca565b005b34801561057457600080fd5b5061058f600480360381019061058a91906129e0565b6115d4565b005b60008060019054906101000a900460ff161590508080156105c25750600160008054906101000a900460ff1660ff16105b806105ef57506105d130611658565b1580156105ee5750600160008054906101000a900460ff1660ff16145b5b61062e576040517f08c379a000000000000000000000000000000000000000000000000000000000815260040161062590613013565b60405180910390fd5b60016000806101000a81548160ff021916908360ff160217905550801561066b576001600060016101000a81548160ff0219169083151502179055505b6106df6040518060400160405280600881526020017f4576656e744e46540000000000000000000000000000000000000000000000008152506040518060400160405280600681526020017f5449434b4554000000000000000000000000000000000000000000000000000081525061167b565b6106e76116d8565b8360fc819055508460fd819055508260ff60006101000a81548173ffffffffffffffffffffffffffffffffffffffff021916908373ffffffffffffffffffffffffffffffffffffffff1602179055508160fe60006101000a81548173ffffffffffffffffffffffffffffffffffffffff021916908373ffffffffffffffffffffffffffffffffffffffff16021790555060ff60009054906101000a900473ffffffffffffffffffffffffffffffffffffffff1673ffffffffffffffffffffffffffffffffffffffff16633a9151b0306107bf46611731565b6040516020016107cf919061312d565b6040516020818303038152906040526040518363ffffffff1660e01b81526004016107fb92919061315e565b6020604051808303816000875af115801561081a573d6000803e3d6000fd5b505050506040513d601f19601f8201168201806040525081019061083e91906131a3565b6101018190555061084e46611731565b61085a61010154611731565b60405160200161086b92919061321c565b6040516020818303038152906040526101009080519060200190610890929190612568565b5080156108ea5760008060016101000a81548160ff0219169083151502179055507f7f26b83ff96e1f2b6a682f133852f6798a09c465da95921460cefb384740249860016040516108e191906132b0565b60405180910390a15b5050505050565b60007f80ac58cd000000000000000000000000000000000000000000000000000000007bffffffffffffffffffffffffffffffffffffffffffffffffffffffff1916827bffffffffffffffffffffffffffffffffffffffffffffffffffffffff191614806109bc57507f5b5e139f000000000000000000000000000000000000000000000000000000007bffffffffffffffffffffffffffffffffffffffffffffffffffffffff1916827bffffffffffffffffffffffffffffffffffffffffffffffffffffffff1916145b806109cc57506109cb82611892565b5b9050919050565b60fe60009054906101000a900473ffffffffffffffffffffffffffffffffffffffff1681565b73e11a86849d99f524cac3e7a0ec1241828e332c6281565b606060978054610a20906132fa565b80601f0160208091040260200160405190810160405280929190818152602001828054610a4c906132fa565b8015610a995780601f10610a6e57610100808354040283529160200191610a99565b820191906000526020600020905b815481529060010190602001808311610a7c57829003601f168201915b5050505050905090565b6000610aae826118fc565b609b600083815260200190815260200160002060009054906101000a900473ffffffffffffffffffffffffffffffffffffffff169050919050565b6000610af482610fff565b90508073ffffffffffffffffffffffffffffffffffffffff168373ffffffffffffffffffffffffffffffffffffffff161415610b65576040517f08c379a0000000000000000000000000000000000000000000000000000000008152600401610b5c9061339e565b60405180910390fd5b8073ffffffffffffffffffffffffffffffffffffffff16610b84611947565b73ffffffffffffffffffffffffffffffffffffffff161480610bb35750610bb281610bad611947565b611336565b5b610bf2576040517f08c379a0000000000000000000000000000000000000000000000000000000008152600401610be990613430565b60405180910390fd5b610bfc838361194f565b505050565b60fd5481565b610c18610c12611947565b82611a08565b610c57576040517f08c379a0000000000000000000000000000000000000000000000000000000008152600401610c4e906134c2565b60405180910390fd5b610c62838383611a9d565b505050565b610c6f6125ee565b610c7761117d565b73ffffffffffffffffffffffffffffffffffffffff168273ffffffffffffffffffffffffffffffffffffffff161415610d53576040518060c00160405280600115158152602001600115158152602001600015158152602001604051806020016040528060008152508152602001604051806020016040528060008152508152602001600067ffffffffffffffff811115610d1557610d14612beb565b5b604051908082528060200260200182016040528015610d4857816020015b6060815260200190600190039081610d335790505b508152509050610ef7565b60fe60009054906101000a900473ffffffffffffffffffffffffffffffffffffffff1673ffffffffffffffffffffffffffffffffffffffff168273ffffffffffffffffffffffffffffffffffffffff161415610e52576040518060c00160405280600015158152602001600115158152602001600015158152602001604051806020016040528060008152508152602001604051806020016040528060008152508152602001600067ffffffffffffffff811115610e1457610e13612beb565b5b604051908082528060200260200182016040528015610e4757816020015b6060815260200190600190039081610e325790505b508152509050610ef7565b6040518060c00160405280600015158152602001600015158152602001600015158152602001604051806020016040528060008152508152602001604051806020016040528060008152508152602001600067ffffffffffffffff811115610ebd57610ebc612beb565b5b604051908082528060200260200182016040528015610ef057816020015b6060815260200190600190039081610edb5790505b5081525090505b919050565b60ff60009054906101000a900473ffffffffffffffffffffffffffffffffffffffff1673ffffffffffffffffffffffffffffffffffffffff1663eaf5d04e3061010154610100888888610f5060fd54611731565b610f5b60fc54611731565b610f648b611731565b604051602001610f7a97969594939291906136cc565b6040516020818303038152906040526040518463ffffffff1660e01b8152600401610fa7939291906137a5565b600060405180830381600087803b158015610fc157600080fd5b505af1158015610fd5573d6000803e3d6000fd5b5050505050505050565b610ffa83838360405180602001604052806000815250611255565b505050565b6000806099600084815260200190815260200160002060009054906101000a900473ffffffffffffffffffffffffffffffffffffffff169050600073ffffffffffffffffffffffffffffffffffffffff168173ffffffffffffffffffffffffffffffffffffffff1614156110a8576040517f08c379a000000000000000000000000000000000000000000000000000000000815260040161109f9061382f565b60405180910390fd5b80915050919050565b60008073ffffffffffffffffffffffffffffffffffffffff168273ffffffffffffffffffffffffffffffffffffffff161415611122576040517f08c379a0000000000000000000000000000000000000000000000000000000008152600401611119906138c1565b60405180910390fd5b609a60008373ffffffffffffffffffffffffffffffffffffffff1673ffffffffffffffffffffffffffffffffffffffff168152602001908152602001600020549050919050565b611171611d04565b61117b6000611d82565b565b6000603360009054906101000a900473ffffffffffffffffffffffffffffffffffffffff16905090565b6060609880546111b6906132fa565b80601f01602080910402602001604051908101604052809291908181526020018280546111e2906132fa565b801561122f5780601f106112045761010080835404028352916020019161122f565b820191906000526020600020905b81548152906001019060200180831161121257829003601f168201915b5050505050905090565b60fc5481565b61125161124a611947565b8383611e48565b5050565b611266611260611947565b83611a08565b6112a5576040517f08c379a000000000000000000000000000000000000000000000000000000000815260040161129c906134c2565b60405180910390fd5b6112b184848484611fb5565b50505050565b606060405180610140016040528061010681526020016141bc61010691396101006040518060400160405280600d81526020017f2b57484552452b69642533443100000000000000000000000000000000000000815250604051602001611320939291906138e1565b6040516020818303038152906040529050919050565b6000609c60008473ffffffffffffffffffffffffffffffffffffffff1673ffffffffffffffffffffffffffffffffffffffff16815260200190815260200160002060008373ffffffffffffffffffffffffffffffffffffffff1673ffffffffffffffffffffffffffffffffffffffff16815260200190815260200160002060009054906101000a900460ff16905092915050565b600073e11a86849d99f524cac3e7a0ec1241828e332c62905060fc548173ffffffffffffffffffffffffffffffffffffffff166370a08231336040518263ffffffff1660e01b815260040161141f9190612820565b602060405180830381865afa15801561143c573d6000803e3d6000fd5b505050506040513d601f19601f8201168201806040525081019061146091906131a3565b10156114a1576040517f08c379a00000000000000000000000000000000000000000000000000000000081526004016114989061395e565b60405180910390fd5b60fd546114ae60fb612011565b11156114ef576040517f08c379a00000000000000000000000000000000000000000000000000000000081526004016114e6906139ca565b60405180910390fd5b8073ffffffffffffffffffffffffffffffffffffffff166323b872dd333060fc546040518463ffffffff1660e01b815260040161152e939291906139ea565b6020604051808303816000875af115801561154d573d6000803e3d6000fd5b505050506040513d601f19601f820116820180604052508101906115719190613a36565b506115853361158060fb612011565b61201f565b7f985d112c54c7518a49841fc37640d9ded60112ea7370ca9129c8ed33c3607bc7336115b160fb612011565b6040516115bf929190613a63565b60405180910390a16115d160fb61203d565b50565b6115dc611d04565b600073ffffffffffffffffffffffffffffffffffffffff168173ffffffffffffffffffffffffffffffffffffffff16141561164c576040517f08c379a000000000000000000000000000000000000000000000000000000000815260040161164390613afe565b60405180910390fd5b61165581611d82565b50565b6000808273ffffffffffffffffffffffffffffffffffffffff163b119050919050565b600060019054906101000a900460ff166116ca576040517f08c379a00000000000000000000000000000000000000000000000000000000081526004016116c190613b90565b60405180910390fd5b6116d48282612053565b5050565b600060019054906101000a900460ff16611727576040517f08c379a000000000000000000000000000000000000000000000000000000000815260040161171e90613b90565b60405180910390fd5b61172f6120d4565b565b60606000821415611779576040518060400160405280600181526020017f3000000000000000000000000000000000000000000000000000000000000000815250905061188d565b600082905060005b600082146117ab57808061179490613bdf565b915050600a826117a49190613c57565b9150611781565b60008167ffffffffffffffff8111156117c7576117c6612beb565b5b6040519080825280601f01601f1916602001820160405280156117f95781602001600182028036833780820191505090505b5090505b60008514611886576001826118129190613c88565b9150600a856118219190613cbc565b603061182d9190613ced565b60f81b81838151811061184357611842613d43565b5b60200101907effffffffffffffffffffffffffffffffffffffffffffffffffffffffffffff1916908160001a905350600a8561187f9190613c57565b94506117fd565b8093505050505b919050565b60007f01ffc9a7000000000000000000000000000000000000000000000000000000007bffffffffffffffffffffffffffffffffffffffffffffffffffffffff1916827bffffffffffffffffffffffffffffffffffffffffffffffffffffffff1916149050919050565b61190581612135565b611944576040517f08c379a000000000000000000000000000000000000000000000000000000000815260040161193b9061382f565b60405180910390fd5b50565b600033905090565b81609b600083815260200190815260200160002060006101000a81548173ffffffffffffffffffffffffffffffffffffffff021916908373ffffffffffffffffffffffffffffffffffffffff160217905550808273ffffffffffffffffffffffffffffffffffffffff166119c283610fff565b73ffffffffffffffffffffffffffffffffffffffff167f8c5be1e5ebec7d5bd14f71427d1e84f3dd0314c0f7b2291e5b200ac8c7c3b92560405160405180910390a45050565b600080611a1483610fff565b90508073ffffffffffffffffffffffffffffffffffffffff168473ffffffffffffffffffffffffffffffffffffffff161480611a565750611a558185611336565b5b80611a9457508373ffffffffffffffffffffffffffffffffffffffff16611a7c84610aa3565b73ffffffffffffffffffffffffffffffffffffffff16145b91505092915050565b8273ffffffffffffffffffffffffffffffffffffffff16611abd82610fff565b73ffffffffffffffffffffffffffffffffffffffff1614611b13576040517f08c379a0000000000000000000000000000000000000000000000000000000008152600401611b0a90613de4565b60405180910390fd5b600073ffffffffffffffffffffffffffffffffffffffff168273ffffffffffffffffffffffffffffffffffffffff161415611b83576040517f08c379a0000000000000000000000000000000000000000000000000000000008152600401611b7a90613e76565b60405180910390fd5b611b8e8383836121a1565b611b9960008261194f565b6001609a60008573ffffffffffffffffffffffffffffffffffffffff1673ffffffffffffffffffffffffffffffffffffffff1681526020019081526020016000206000828254611be99190613c88565b925050819055506001609a60008473ffffffffffffffffffffffffffffffffffffffff1673ffffffffffffffffffffffffffffffffffffffff1681526020019081526020016000206000828254611c409190613ced565b92505081905550816099600083815260200190815260200160002060006101000a81548173ffffffffffffffffffffffffffffffffffffffff021916908373ffffffffffffffffffffffffffffffffffffffff160217905550808273ffffffffffffffffffffffffffffffffffffffff168473ffffffffffffffffffffffffffffffffffffffff167fddf252ad1be2c89b69c2b068fc378daa952ba7f163c4a11628f55a4df523b3ef60405160405180910390a4611cff8383836121a6565b505050565b611d0c611947565b73ffffffffffffffffffffffffffffffffffffffff16611d2a61117d565b73ffffffffffffffffffffffffffffffffffffffff1614611d80576040517f08c379a0000000000000000000000000000000000000000000000000000000008152600401611d7790613ee2565b60405180910390fd5b565b6000603360009054906101000a900473ffffffffffffffffffffffffffffffffffffffff16905081603360006101000a81548173ffffffffffffffffffffffffffffffffffffffff021916908373ffffffffffffffffffffffffffffffffffffffff1602179055508173ffffffffffffffffffffffffffffffffffffffff168173ffffffffffffffffffffffffffffffffffffffff167f8be0079c531659141344cd1fd0a4f28419497f9722a3daafe3b4186f6b6457e060405160405180910390a35050565b8173ffffffffffffffffffffffffffffffffffffffff168373ffffffffffffffffffffffffffffffffffffffff161415611eb7576040517f08c379a0000000000000000000000000000000000000000000000000000000008152600401611eae90613f4e565b60405180910390fd5b80609c60008573ffffffffffffffffffffffffffffffffffffffff1673ffffffffffffffffffffffffffffffffffffffff16815260200190815260200160002060008473ffffffffffffffffffffffffffffffffffffffff1673ffffffffffffffffffffffffffffffffffffffff16815260200190815260200160002060006101000a81548160ff0219169083151502179055508173ffffffffffffffffffffffffffffffffffffffff168373ffffffffffffffffffffffffffffffffffffffff167f17307eab39ab6107e8899845ad3d59bd9653f200f220920489ca2b5937696c3183604051611fa891906127f6565b60405180910390a3505050565b611fc0848484611a9d565b611fcc848484846121ab565b61200b576040517f08c379a000000000000000000000000000000000000000000000000000000000815260040161200290613fe0565b60405180910390fd5b50505050565b600081600001549050919050565b612039828260405180602001604052806000815250612333565b5050565b6001816000016000828254019250508190555050565b600060019054906101000a900460ff166120a2576040517f08c379a000000000000000000000000000000000000000000000000000000000815260040161209990613b90565b60405180910390fd5b81609790805190602001906120b8929190612568565b5080609890805190602001906120cf929190612568565b505050565b600060019054906101000a900460ff16612123576040517f08c379a000000000000000000000000000000000000000000000000000000000815260040161211a90613b90565b60405180910390fd5b61213361212e611947565b611d82565b565b60008073ffffffffffffffffffffffffffffffffffffffff166099600084815260200190815260200160002060009054906101000a900473ffffffffffffffffffffffffffffffffffffffff1673ffffffffffffffffffffffffffffffffffffffff1614159050919050565b505050565b505050565b60006121cc8473ffffffffffffffffffffffffffffffffffffffff16611658565b15612326578373ffffffffffffffffffffffffffffffffffffffff1663150b7a026121f5611947565b8786866040518563ffffffff1660e01b81526004016122179493929190614055565b6020604051808303816000875af192505050801561225357506040513d601f19601f8201168201806040525081019061225091906140b6565b60015b6122d6573d8060008114612283576040519150601f19603f3d011682016040523d82523d6000602084013e612288565b606091505b506000815114156122ce576040517f08c379a00000000000000000000000000000000000000000000000000000000081526004016122c590613fe0565b60405180910390fd5b805181602001fd5b63150b7a0260e01b7bffffffffffffffffffffffffffffffffffffffffffffffffffffffff1916817bffffffffffffffffffffffffffffffffffffffffffffffffffffffff19161491505061232b565b600190505b949350505050565b61233d838361238e565b61234a60008484846121ab565b612389576040517f08c379a000000000000000000000000000000000000000000000000000000000815260040161238090613fe0565b60405180910390fd5b505050565b600073ffffffffffffffffffffffffffffffffffffffff168273ffffffffffffffffffffffffffffffffffffffff1614156123fe576040517f08c379a00000000000000000000000000000000000000000000000000000000081526004016123f59061412f565b60405180910390fd5b61240781612135565b15612447576040517f08c379a000000000000000000000000000000000000000000000000000000000815260040161243e9061419b565b60405180910390fd5b612453600083836121a1565b6001609a60008473ffffffffffffffffffffffffffffffffffffffff1673ffffffffffffffffffffffffffffffffffffffff16815260200190815260200160002060008282546124a39190613ced565b92505081905550816099600083815260200190815260200160002060006101000a81548173ffffffffffffffffffffffffffffffffffffffff021916908373ffffffffffffffffffffffffffffffffffffffff160217905550808273ffffffffffffffffffffffffffffffffffffffff16600073ffffffffffffffffffffffffffffffffffffffff167fddf252ad1be2c89b69c2b068fc378daa952ba7f163c4a11628f55a4df523b3ef60405160405180910390a4612564600083836121a6565b5050565b828054612574906132fa565b90600052602060002090601f01602090048101928261259657600085556125dd565b82601f106125af57805160ff19168380011785556125dd565b828001600101855582156125dd579182015b828111156125dc5782518255916020019190600101906125c1565b5b5090506125ea919061262a565b5090565b6040518060c001604052806000151581526020016000151581526020016000151581526020016060815260200160608152602001606081525090565b5b8082111561264357600081600090555060010161262b565b5090565b6000604051905090565b600080fd5b600080fd5b6000819050919050565b61266e8161265b565b811461267957600080fd5b50565b60008135905061268b81612665565b92915050565b600073ffffffffffffffffffffffffffffffffffffffff82169050919050565b60006126bc82612691565b9050919050565b6126cc816126b1565b81146126d757600080fd5b50565b6000813590506126e9816126c3565b92915050565b6000806000806080858703121561270957612708612651565b5b60006127178782880161267c565b94505060206127288782880161267c565b9350506040612739878288016126da565b925050606061274a878288016126da565b91505092959194509250565b60007fffffffff0000000000000000000000000000000000000000000000000000000082169050919050565b61278b81612756565b811461279657600080fd5b50565b6000813590506127a881612782565b92915050565b6000602082840312156127c4576127c3612651565b5b60006127d284828501612799565b91505092915050565b60008115159050919050565b6127f0816127db565b82525050565b600060208201905061280b60008301846127e7565b92915050565b61281a816126b1565b82525050565b60006020820190506128356000830184612811565b92915050565b600081519050919050565b600082825260208201905092915050565b60005b8381101561287557808201518184015260208101905061285a565b83811115612884576000848401525b50505050565b6000601f19601f8301169050919050565b60006128a68261283b565b6128b08185612846565b93506128c0818560208601612857565b6128c98161288a565b840191505092915050565b600060208201905081810360008301526128ee818461289b565b905092915050565b60006020828403121561290c5761290b612651565b5b600061291a8482850161267c565b91505092915050565b6000806040838503121561293a57612939612651565b5b6000612948858286016126da565b92505060206129598582860161267c565b9150509250929050565b61296c8161265b565b82525050565b60006020820190506129876000830184612963565b92915050565b6000806000606084860312156129a6576129a5612651565b5b60006129b4868287016126da565b93505060206129c5868287016126da565b92505060406129d68682870161267c565b9150509250925092565b6000602082840312156129f6576129f5612651565b5b6000612a04848285016126da565b91505092915050565b612a16816127db565b82525050565b600082825260208201905092915050565b6000612a388261283b565b612a428185612a1c565b9350612a52818560208601612857565b612a5b8161288a565b840191505092915050565b600081519050919050565b600082825260208201905092915050565b6000819050602082019050919050565b6000612a9e8383612a2d565b905092915050565b6000602082019050919050565b6000612abe82612a66565b612ac88185612a71565b935083602082028501612ada85612a82565b8060005b85811015612b165784840389528151612af78582612a92565b9450612b0283612aa6565b925060208a01995050600181019050612ade565b50829750879550505050505092915050565b600060c083016000830151612b406000860182612a0d565b506020830151612b536020860182612a0d565b506040830151612b666040860182612a0d565b5060608301518482036060860152612b7e8282612a2d565b91505060808301518482036080860152612b988282612a2d565b91505060a083015184820360a0860152612bb28282612ab3565b9150508091505092915050565b60006020820190508181036000830152612bd98184612b28565b905092915050565b600080fd5b600080fd5b7f4e487b7100000000000000000000000000000000000000000000000000000000600052604160045260246000fd5b612c238261288a565b810181811067ffffffffffffffff82111715612c4257612c41612beb565b5b80604052505050565b6000612c55612647565b9050612c618282612c1a565b919050565b600067ffffffffffffffff821115612c8157612c80612beb565b5b612c8a8261288a565b9050602081019050919050565b82818337600083830152505050565b6000612cb9612cb484612c66565b612c4b565b905082815260208101848484011115612cd557612cd4612be6565b5b612ce0848285612c97565b509392505050565b600082601f830112612cfd57612cfc612be1565b5b8135612d0d848260208601612ca6565b91505092915050565b60008060008060808587031215612d3057612d2f612651565b5b600085013567ffffffffffffffff811115612d4e57612d4d612656565b5b612d5a87828801612ce8565b945050602085013567ffffffffffffffff811115612d7b57612d7a612656565b5b612d8787828801612ce8565b935050604085013567ffffffffffffffff811115612da857612da7612656565b5b612db487828801612ce8565b9250506060612dc58782880161267c565b91505092959194509250565b612dda816127db565b8114612de557600080fd5b50565b600081359050612df781612dd1565b92915050565b60008060408385031215612e1457612e13612651565b5b6000612e22858286016126da565b9250506020612e3385828601612de8565b9150509250929050565b600067ffffffffffffffff821115612e5857612e57612beb565b5b612e618261288a565b9050602081019050919050565b6000612e81612e7c84612e3d565b612c4b565b905082815260208101848484011115612e9d57612e9c612be6565b5b612ea8848285612c97565b509392505050565b600082601f830112612ec557612ec4612be1565b5b8135612ed5848260208601612e6e565b91505092915050565b60008060008060808587031215612ef857612ef7612651565b5b6000612f06878288016126da565b9450506020612f17878288016126da565b9350506040612f288782880161267c565b925050606085013567ffffffffffffffff811115612f4957612f48612656565b5b612f5587828801612eb0565b91505092959194509250565b60008060408385031215612f7857612f77612651565b5b6000612f86858286016126da565b9250506020612f97858286016126da565b9150509250929050565b7f496e697469616c697a61626c653a20636f6e747261637420697320616c72656160008201527f647920696e697469616c697a6564000000000000000000000000000000000000602082015250565b6000612ffd602e83612846565b915061300882612fa1565b604082019050919050565b6000602082019050818103600083015261302c81612ff0565b9050919050565b7f435245415445205441424c45206576656e745f00000000000000000000000000815250565b600081905092915050565b600061306f8261283b565b6130798185613059565b9350613089818560208601612857565b80840191505092915050565b7f2028696420696e742c206e616d6520746578742c206465736372697074696f6e60008201527f20746578742c20696d61676520746578742c20746f74616c5f737570706c792060208201527f696e742c20707269636520696e742c206461746520696e74293b000000000000604082015250565b6000613117605a83613059565b915061312282613095565b605a82019050919050565b600061313882613033565b6013820191506131488284613064565b91506131538261310a565b915081905092915050565b60006040820190506131736000830185612811565b8181036020830152613185818461289b565b90509392505050565b60008151905061319d81612665565b92915050565b6000602082840312156131b9576131b8612651565b5b60006131c78482850161318e565b91505092915050565b7f7469636b65745f00000000000000000000000000000000000000000000000000815250565b7f5f00000000000000000000000000000000000000000000000000000000000000815250565b6000613227826131d0565b6007820191506132378285613064565b9150613242826131f6565b6001820191506132528284613064565b91508190509392505050565b6000819050919050565b600060ff82169050919050565b6000819050919050565b600061329a6132956132908461325e565b613275565b613268565b9050919050565b6132aa8161327f565b82525050565b60006020820190506132c560008301846132a1565b92915050565b7f4e487b7100000000000000000000000000000000000000000000000000000000600052602260045260246000fd5b6000600282049050600182168061331257607f821691505b60208210811415613326576133256132cb565b5b50919050565b7f4552433732313a20617070726f76616c20746f2063757272656e74206f776e6560008201527f7200000000000000000000000000000000000000000000000000000000000000602082015250565b6000613388602183612846565b91506133938261332c565b604082019050919050565b600060208201905081810360008301526133b78161337b565b9050919050565b7f4552433732313a20617070726f76652063616c6c6572206973206e6f7420746f60008201527f6b656e206f776e6572206e6f7220617070726f76656420666f7220616c6c0000602082015250565b600061341a603e83612846565b9150613425826133be565b604082019050919050565b600060208201905081810360008301526134498161340d565b9050919050565b7f4552433732313a2063616c6c6572206973206e6f7420746f6b656e206f776e6560008201527f72206e6f7220617070726f766564000000000000000000000000000000000000602082015250565b60006134ac602e83612846565b91506134b782613450565b604082019050919050565b600060208201905081810360008301526134db8161349f565b9050919050565b7f494e5345525420494e544f200000000000000000000000000000000000000000815250565b60008190508160005260206000209050919050565b6000815461352a816132fa565b6135348186613059565b9450600182166000811461354f576001811461356057613593565b60ff19831686528186019350613593565b61356985613508565b60005b8381101561358b5781548189015260018201915060208101905061356c565b838801955050505b50505092915050565b7f202869642c206e616d652c206465736372697074696f6e2c20696d6167652c2060008201527f746f74616c5f737570706c792c2070726963652c2064617465292056414c554560208201527f532028312c202700000000000000000000000000000000000000000000000000604082015250565b600061361e604783613059565b91506136298261359c565b604782019050919050565b7f272c202700000000000000000000000000000000000000000000000000000000815250565b7f272c200000000000000000000000000000000000000000000000000000000000815250565b7f2c20000000000000000000000000000000000000000000000000000000000000815250565b7f2900000000000000000000000000000000000000000000000000000000000000815250565b60006136d7826134e2565b600c820191506136e7828a61351d565b91506136f282613611565b91506136fe8289613064565b915061370982613634565b6004820191506137198288613064565b915061372482613634565b6004820191506137348287613064565b915061373f8261365a565b60038201915061374f8286613064565b915061375a82613680565b60028201915061376a8285613064565b915061377582613680565b6002820191506137858284613064565b9150613790826136a6565b60018201915081905098975050505050505050565b60006060820190506137ba6000830186612811565b6137c76020830185612963565b81810360408301526137d9818461289b565b9050949350505050565b7f4552433732313a20696e76616c696420746f6b656e2049440000000000000000600082015250565b6000613819601883612846565b9150613824826137e3565b602082019050919050565b600060208201905081810360008301526138488161380c565b9050919050565b7f4552433732313a2061646472657373207a65726f206973206e6f74206120766160008201527f6c6964206f776e65720000000000000000000000000000000000000000000000602082015250565b60006138ab602983612846565b91506138b68261384f565b604082019050919050565b600060208201905081810360008301526138da8161389e565b9050919050565b60006138ed8286613064565b91506138f9828561351d565b91506139058284613064565b9150819050949350505050565b7f4e6f7420656e6f75676820555344430000000000000000000000000000000000600082015250565b6000613948600f83612846565b915061395382613912565b602082019050919050565b600060208201905081810360008301526139778161393b565b9050919050565b7f416c6c207469636b65747320617265206d696e74656400000000000000000000600082015250565b60006139b4601683612846565b91506139bf8261397e565b602082019050919050565b600060208201905081810360008301526139e3816139a7565b9050919050565b60006060820190506139ff6000830186612811565b613a0c6020830185612811565b613a196040830184612963565b949350505050565b600081519050613a3081612dd1565b92915050565b600060208284031215613a4c57613a4b612651565b5b6000613a5a84828501613a21565b91505092915050565b6000604082019050613a786000830185612811565b613a856020830184612963565b9392505050565b7f4f776e61626c653a206e6577206f776e657220697320746865207a65726f206160008201527f6464726573730000000000000000000000000000000000000000000000000000602082015250565b6000613ae8602683612846565b9150613af382613a8c565b604082019050919050565b60006020820190508181036000830152613b1781613adb565b9050919050565b7f496e697469616c697a61626c653a20636f6e7472616374206973206e6f74206960008201527f6e697469616c697a696e67000000000000000000000000000000000000000000602082015250565b6000613b7a602b83612846565b9150613b8582613b1e565b604082019050919050565b60006020820190508181036000830152613ba981613b6d565b9050919050565b7f4e487b7100000000000000000000000000000000000000000000000000000000600052601160045260246000fd5b6000613bea8261265b565b91507fffffffffffffffffffffffffffffffffffffffffffffffffffffffffffffffff821415613c1d57613c1c613bb0565b5b600182019050919050565b7f4e487b7100000000000000000000000000000000000000000000000000000000600052601260045260246000fd5b6000613c628261265b565b9150613c6d8361265b565b925082613c7d57613c7c613c28565b5b828204905092915050565b6000613c938261265b565b9150613c9e8361265b565b925082821015613cb157613cb0613bb0565b5b828203905092915050565b6000613cc78261265b565b9150613cd28361265b565b925082613ce257613ce1613c28565b5b828206905092915050565b6000613cf88261265b565b9150613d038361265b565b9250827fffffffffffffffffffffffffffffffffffffffffffffffffffffffffffffffff03821115613d3857613d37613bb0565b5b828201905092915050565b7f4e487b7100000000000000000000000000000000000000000000000000000000600052603260045260246000fd5b7f4552433732313a207472616e736665722066726f6d20696e636f72726563742060008201527f6f776e6572000000000000000000000000000000000000000000000000000000602082015250565b6000613dce602583612846565b9150613dd982613d72565b604082019050919050565b60006020820190508181036000830152613dfd81613dc1565b9050919050565b7f4552433732313a207472616e7366657220746f20746865207a65726f2061646460008201527f7265737300000000000000000000000000000000000000000000000000000000602082015250565b6000613e60602483612846565b9150613e6b82613e04565b604082019050919050565b60006020820190508181036000830152613e8f81613e53565b9050919050565b7f4f776e61626c653a2063616c6c6572206973206e6f7420746865206f776e6572600082015250565b6000613ecc602083612846565b9150613ed782613e96565b602082019050919050565b60006020820190508181036000830152613efb81613ebf565b9050919050565b7f4552433732313a20617070726f766520746f2063616c6c657200000000000000600082015250565b6000613f38601983612846565b9150613f4382613f02565b602082019050919050565b60006020820190508181036000830152613f6781613f2b565b9050919050565b7f4552433732313a207472616e7366657220746f206e6f6e20455243373231526560008201527f63656976657220696d706c656d656e7465720000000000000000000000000000602082015250565b6000613fca603283612846565b9150613fd582613f6e565b604082019050919050565b60006020820190508181036000830152613ff981613fbd565b9050919050565b600081519050919050565b600082825260208201905092915050565b600061402782614000565b614031818561400b565b9350614041818560208601612857565b61404a8161288a565b840191505092915050565b600060808201905061406a6000830187612811565b6140776020830186612811565b6140846040830185612963565b8181036060830152614096818461401c565b905095945050505050565b6000815190506140b081612782565b92915050565b6000602082840312156140cc576140cb612651565b5b60006140da848285016140a1565b91505092915050565b7f4552433732313a206d696e7420746f20746865207a65726f2061646472657373600082015250565b6000614119602083612846565b9150614124826140e3565b602082019050919050565b600060208201905081810360008301526141488161410c565b9050919050565b7f4552433732313a20746f6b656e20616c7265616479206d696e74656400000000600082015250565b6000614185601c83612846565b91506141908261414f565b602082019050919050565b600060208201905081810360008301526141b481614178565b905091905056fe68747470733a2f2f746573746e65742e7461626c656c616e642e6e6574776f726b2f71756572793f6d6f64653d6c69737426733d53454c4543542b6a736f6e5f6f626a65637425323825323769642532372532432b69642532432b2532376e616d652532372532432b6e616d652532432b2532376465736372697074696f6e2532372532432b6465736372697074696f6e2532432b253237696d6167652532372532432b696d6167652532432b253237746f74616c5f737570706c792532372532432b746f74616c5f737570706c792532432b25323770726963652532372532432b70726963652532432b253237646174652532372532432b646174652532392b46524f4d2ba2646970667358221220b9ce7beca31fa0054e860b9acda210e67b31dc49dec56b645fd316351788bc4864736f6c634300080c0033",
  "linkReferences": {},
  "deployedLinkReferences": {}
}