{
  "_format": "hh-sol-artifact-1",
  "contractName": "Factory",
  "sourceName": "contracts/Factory.sol",
  "abi": [
    {
      "inputs": [
        {
          "internalType": "address",
          "name": "_ticketNftAddress",
          "type": "address"
        },
        {
          "internalType": "address",
          "name": "_registry",
          "type": "address"
        }
      ],
      "stateMutability": "nonpayable",
      "type": "constructor"
    },
    {
      "anonymous": false,
      "inputs": [
        {
          "indexed": false,
          "internalType": "address",
          "name": "",
          "type": "address"
        }
      ],
      "name": "EventCreated",
      "type": "event"
    },
    {
      "inputs": [],
      "name": "allEvents",
      "outputs": [
        {
          "internalType": "address[]",
          "name": "",
          "type": "address[]"
        }
      ],
      "stateMutability": "view",
      "type": "function"
    },
    {
      "inputs": [
        {
          "internalType": "address",
          "name": "_owner",
          "type": "address"
        }
      ],
      "name": "allEventsByAddress",
      "outputs": [
        {
          "internalType": "address[]",
          "name": "",
          "type": "address[]"
        }
      ],
      "stateMutability": "view",
      "type": "function"
    },
    {
      "inputs": [
        {
          "internalType": "uint256",
          "name": "_totalSupply",
          "type": "uint256"
        },
        {
          "internalType": "uint256",
          "name": "_price",
          "type": "uint256"
        }
      ],
      "name": "createEvent",
      "outputs": [
        {
          "internalType": "address",
          "name": "clone",
          "type": "address"
        }
      ],
      "stateMutability": "nonpayable",
      "type": "function"
    }
  ],
  "bytecode": "0x608060405234801561001057600080fd5b506040516109973803806109978339818101604052810190610032919061011d565b816000806101000a81548173ffffffffffffffffffffffffffffffffffffffff021916908373ffffffffffffffffffffffffffffffffffffffff16021790555080600460006101000a81548173ffffffffffffffffffffffffffffffffffffffff021916908373ffffffffffffffffffffffffffffffffffffffff160217905550505061015d565b600080fd5b600073ffffffffffffffffffffffffffffffffffffffff82169050919050565b60006100ea826100bf565b9050919050565b6100fa816100df565b811461010557600080fd5b50565b600081519050610117816100f1565b92915050565b60008060408385031215610134576101336100ba565b5b600061014285828601610108565b925050602061015385828601610108565b9150509250929050565b61082b8061016c6000396000f3fe608060405234801561001057600080fd5b50600436106100415760003560e01c806314d7c37514610046578063790c012514610064578063f13e176814610094575b600080fd5b61004e6100c4565b60405161005b9190610604565b60405180910390f35b61007e60048036038101906100799190610661565b610152565b60405161008b91906106b0565b60405180910390f35b6100ae60048036038101906100a991906106f7565b61035c565b6040516100bb9190610604565b60405180910390f35b6060600280548060200260200160405190810160405280929190818152602001828054801561014857602002820191906000526020600020905b8160009054906101000a900473ffffffffffffffffffffffffffffffffffffffff1673ffffffffffffffffffffffffffffffffffffffff16815260200190600101908083116100fe575b5050505050905090565b600061017d60008054906101000a900473ffffffffffffffffffffffffffffffffffffffff16610429565b90508073ffffffffffffffffffffffffffffffffffffffff1663019e27298484600460009054906101000a900473ffffffffffffffffffffffffffffffffffffffff16336040518563ffffffff1660e01b81526004016101e09493929190610733565b600060405180830381600087803b1580156101fa57600080fd5b505af115801561020e573d6000803e3d6000fd5b5050505061021c60036104fe565b7ffc8a4c0621b9788c4dbe57053a51ce2d22625a067d039f38004df2a07ca755a48160405161024b91906106b0565b60405180910390a1600160003373ffffffffffffffffffffffffffffffffffffffff1673ffffffffffffffffffffffffffffffffffffffff168152602001908152602001600020819080600181540180825580915050600190039060005260206000200160009091909190916101000a81548173ffffffffffffffffffffffffffffffffffffffff021916908373ffffffffffffffffffffffffffffffffffffffff1602179055506002819080600181540180825580915050600190039060005260206000200160009091909190916101000a81548173ffffffffffffffffffffffffffffffffffffffff021916908373ffffffffffffffffffffffffffffffffffffffff16021790555092915050565b6060600160008373ffffffffffffffffffffffffffffffffffffffff1673ffffffffffffffffffffffffffffffffffffffff16815260200190815260200160002080548060200260200160405190810160405280929190818152602001828054801561041d57602002820191906000526020600020905b8160009054906101000a900473ffffffffffffffffffffffffffffffffffffffff1673ffffffffffffffffffffffffffffffffffffffff16815260200190600101908083116103d3575b50505050509050919050565b60006040517f3d602d80600a3d3981f3363d3d373d3d3d363d7300000000000000000000000081528260601b60148201527f5af43d82803e903d91602b57fd5bf3000000000000000000000000000000000060288201526037816000f0915050600073ffffffffffffffffffffffffffffffffffffffff168173ffffffffffffffffffffffffffffffffffffffff1614156104f9576040517f08c379a00000000000000000000000000000000000000000000000000000000081526004016104f0906107d5565b60405180910390fd5b919050565b6001816000016000828254019250508190555050565b600081519050919050565b600082825260208201905092915050565b6000819050602082019050919050565b600073ffffffffffffffffffffffffffffffffffffffff82169050919050565b600061056b82610540565b9050919050565b61057b81610560565b82525050565b600061058d8383610572565b60208301905092915050565b6000602082019050919050565b60006105b182610514565b6105bb818561051f565b93506105c683610530565b8060005b838110156105f75781516105de8882610581565b97506105e983610599565b9250506001810190506105ca565b5085935050505092915050565b6000602082019050818103600083015261061e81846105a6565b905092915050565b600080fd5b6000819050919050565b61063e8161062b565b811461064957600080fd5b50565b60008135905061065b81610635565b92915050565b6000806040838503121561067857610677610626565b5b60006106868582860161064c565b92505060206106978582860161064c565b9150509250929050565b6106aa81610560565b82525050565b60006020820190506106c560008301846106a1565b92915050565b6106d481610560565b81146106df57600080fd5b50565b6000813590506106f1816106cb565b92915050565b60006020828403121561070d5761070c610626565b5b600061071b848285016106e2565b91505092915050565b61072d8161062b565b82525050565b60006080820190506107486000830187610724565b6107556020830186610724565b61076260408301856106a1565b61076f60608301846106a1565b95945050505050565b600082825260208201905092915050565b7f455243313136373a20637265617465206661696c656400000000000000000000600082015250565b60006107bf601683610778565b91506107ca82610789565b602082019050919050565b600060208201905081810360008301526107ee816107b2565b905091905056fea26469706673582212205d31b1c8158b89b9b7ad9ea9e5d99edf1ff3c676c0f5b9a7f43128750413d2b264736f6c634300080c0033",
  "linkReferences": {},
  "deployedLinkReferences": {}
}