{
  "_format": "hh-sol-artifact-1",
  "contractName": "Factory",
  "sourceName": "contracts/Factory.sol",
  "abi": [
    {
      "inputs": [
        {
          "internalType": "address",
          "name": "_ticketNftAddress",
          "type": "address"
        }
      ],
      "stateMutability": "nonpayable",
      "type": "constructor"
    },
    {
      "anonymous": false,
      "inputs": [
        {
          "indexed": false,
          "internalType": "address",
          "name": "",
          "type": "address"
        }
      ],
      "name": "EventCreated",
      "type": "event"
    },
    {
      "inputs": [],
      "name": "allEvents",
      "outputs": [
        {
          "internalType": "address[]",
          "name": "",
          "type": "address[]"
        }
      ],
      "stateMutability": "view",
      "type": "function"
    },
    {
      "inputs": [
        {
          "internalType": "address",
          "name": "_owner",
          "type": "address"
        }
      ],
      "name": "allEventsByOwner",
      "outputs": [
        {
          "internalType": "address[]",
          "name": "",
          "type": "address[]"
        }
      ],
      "stateMutability": "view",
      "type": "function"
    },
    {
      "inputs": [
        {
          "internalType": "uint256",
          "name": "_totalSupply",
          "type": "uint256"
        },
        {
          "internalType": "uint256",
          "name": "_price",
          "type": "uint256"
        },
        {
          "internalType": "string",
          "name": "_uri",
          "type": "string"
        }
      ],
      "name": "createEvent",
      "outputs": [
        {
          "internalType": "address",
          "name": "clone",
          "type": "address"
        }
      ],
      "stateMutability": "nonpayable",
      "type": "function"
    }
  ],
  "bytecode": "0x608060405234801561001057600080fd5b50604051610b23380380610b23833981810160405281019061003291906100db565b806000806101000a81548173ffffffffffffffffffffffffffffffffffffffff021916908373ffffffffffffffffffffffffffffffffffffffff16021790555050610108565b600080fd5b600073ffffffffffffffffffffffffffffffffffffffff82169050919050565b60006100a88261007d565b9050919050565b6100b88161009d565b81146100c357600080fd5b50565b6000815190506100d5816100af565b92915050565b6000602082840312156100f1576100f0610078565b5b60006100ff848285016100c6565b91505092915050565b610a0c806101176000396000f3fe608060405234801561001057600080fd5b50600436106100415760003560e01c806314d7c37514610046578063294e0d5614610064578063ee20608b14610094575b600080fd5b61004e6100c4565b60405161005b91906105e3565b60405180910390f35b61007e60048036038101906100799190610795565b610152565b60405161008b9190610813565b60405180910390f35b6100ae60048036038101906100a9919061085a565b61033b565b6040516100bb91906105e3565b60405180910390f35b6060600280548060200260200160405190810160405280929190818152602001828054801561014857602002820191906000526020600020905b8160009054906101000a900473ffffffffffffffffffffffffffffffffffffffff1673ffffffffffffffffffffffffffffffffffffffff16815260200190600101908083116100fe575b5050505050905090565b600061017d60008054906101000a900473ffffffffffffffffffffffffffffffffffffffff16610408565b90508073ffffffffffffffffffffffffffffffffffffffff166332cfb5d4858533866040518563ffffffff1660e01b81526004016101be949392919061091e565b600060405180830381600087803b1580156101d857600080fd5b505af11580156101ec573d6000803e3d6000fd5b505050506101fa60036104dd565b7ffc8a4c0621b9788c4dbe57053a51ce2d22625a067d039f38004df2a07ca755a4816040516102299190610813565b60405180910390a1600160003373ffffffffffffffffffffffffffffffffffffffff1673ffffffffffffffffffffffffffffffffffffffff168152602001908152602001600020819080600181540180825580915050600190039060005260206000200160009091909190916101000a81548173ffffffffffffffffffffffffffffffffffffffff021916908373ffffffffffffffffffffffffffffffffffffffff1602179055506002819080600181540180825580915050600190039060005260206000200160009091909190916101000a81548173ffffffffffffffffffffffffffffffffffffffff021916908373ffffffffffffffffffffffffffffffffffffffff1602179055509392505050565b6060600160008373ffffffffffffffffffffffffffffffffffffffff1673ffffffffffffffffffffffffffffffffffffffff1681526020019081526020016000208054806020026020016040519081016040528092919081815260200182805480156103fc57602002820191906000526020600020905b8160009054906101000a900473ffffffffffffffffffffffffffffffffffffffff1673ffffffffffffffffffffffffffffffffffffffff16815260200190600101908083116103b2575b50505050509050919050565b60006040517f3d602d80600a3d3981f3363d3d373d3d3d363d7300000000000000000000000081528260601b60148201527f5af43d82803e903d91602b57fd5bf3000000000000000000000000000000000060288201526037816000f0915050600073ffffffffffffffffffffffffffffffffffffffff168173ffffffffffffffffffffffffffffffffffffffff1614156104d8576040517f08c379a00000000000000000000000000000000000000000000000000000000081526004016104cf906109b6565b60405180910390fd5b919050565b6001816000016000828254019250508190555050565b600081519050919050565b600082825260208201905092915050565b6000819050602082019050919050565b600073ffffffffffffffffffffffffffffffffffffffff82169050919050565b600061054a8261051f565b9050919050565b61055a8161053f565b82525050565b600061056c8383610551565b60208301905092915050565b6000602082019050919050565b6000610590826104f3565b61059a81856104fe565b93506105a58361050f565b8060005b838110156105d65781516105bd8882610560565b97506105c883610578565b9250506001810190506105a9565b5085935050505092915050565b600060208201905081810360008301526105fd8184610585565b905092915050565b6000604051905090565b600080fd5b600080fd5b6000819050919050565b61062c81610619565b811461063757600080fd5b50565b60008135905061064981610623565b92915050565b600080fd5b600080fd5b6000601f19601f8301169050919050565b7f4e487b7100000000000000000000000000000000000000000000000000000000600052604160045260246000fd5b6106a282610659565b810181811067ffffffffffffffff821117156106c1576106c061066a565b5b80604052505050565b60006106d4610605565b90506106e08282610699565b919050565b600067ffffffffffffffff821115610700576106ff61066a565b5b61070982610659565b9050602081019050919050565b82818337600083830152505050565b6000610738610733846106e5565b6106ca565b90508281526020810184848401111561075457610753610654565b5b61075f848285610716565b509392505050565b600082601f83011261077c5761077b61064f565b5b813561078c848260208601610725565b91505092915050565b6000806000606084860312156107ae576107ad61060f565b5b60006107bc8682870161063a565b93505060206107cd8682870161063a565b925050604084013567ffffffffffffffff8111156107ee576107ed610614565b5b6107fa86828701610767565b9150509250925092565b61080d8161053f565b82525050565b60006020820190506108286000830184610804565b92915050565b6108378161053f565b811461084257600080fd5b50565b6000813590506108548161082e565b92915050565b6000602082840312156108705761086f61060f565b5b600061087e84828501610845565b91505092915050565b61089081610619565b82525050565b600081519050919050565b600082825260208201905092915050565b60005b838110156108d05780820151818401526020810190506108b5565b838111156108df576000848401525b50505050565b60006108f082610896565b6108fa81856108a1565b935061090a8185602086016108b2565b61091381610659565b840191505092915050565b60006080820190506109336000830187610887565b6109406020830186610887565b61094d6040830185610804565b818103606083015261095f81846108e5565b905095945050505050565b7f455243313136373a20637265617465206661696c656400000000000000000000600082015250565b60006109a06016836108a1565b91506109ab8261096a565b602082019050919050565b600060208201905081810360008301526109cf81610993565b905091905056fea264697066735822122020caaebd5e5f03dc73005632597765b21a3640d029026ae9f59f859c20a5fa3564736f6c634300080c0033",
  "linkReferences": {},
  "deployedLinkReferences": {}
}