{
  "_format": "hh-sol-artifact-1",
  "contractName": "EventNFT",
  "sourceName": "contracts/EventNFT.sol",
  "abi": [
    {
      "anonymous": false,
      "inputs": [
        {
          "indexed": true,
          "internalType": "address",
          "name": "owner",
          "type": "address"
        },
        {
          "indexed": true,
          "internalType": "address",
          "name": "approved",
          "type": "address"
        },
        {
          "indexed": true,
          "internalType": "uint256",
          "name": "tokenId",
          "type": "uint256"
        }
      ],
      "name": "Approval",
      "type": "event"
    },
    {
      "anonymous": false,
      "inputs": [
        {
          "indexed": true,
          "internalType": "address",
          "name": "owner",
          "type": "address"
        },
        {
          "indexed": true,
          "internalType": "address",
          "name": "operator",
          "type": "address"
        },
        {
          "indexed": false,
          "internalType": "bool",
          "name": "approved",
          "type": "bool"
        }
      ],
      "name": "ApprovalForAll",
      "type": "event"
    },
    {
      "anonymous": false,
      "inputs": [
        {
          "indexed": false,
          "internalType": "uint8",
          "name": "version",
          "type": "uint8"
        }
      ],
      "name": "Initialized",
      "type": "event"
    },
    {
      "anonymous": false,
      "inputs": [
        {
          "indexed": true,
          "internalType": "address",
          "name": "previousOwner",
          "type": "address"
        },
        {
          "indexed": true,
          "internalType": "address",
          "name": "newOwner",
          "type": "address"
        }
      ],
      "name": "OwnershipTransferred",
      "type": "event"
    },
    {
      "anonymous": false,
      "inputs": [
        {
          "indexed": false,
          "internalType": "address",
          "name": "",
          "type": "address"
        },
        {
          "indexed": false,
          "internalType": "uint256",
          "name": "",
          "type": "uint256"
        }
      ],
      "name": "TicketBought",
      "type": "event"
    },
    {
      "anonymous": false,
      "inputs": [
        {
          "indexed": true,
          "internalType": "address",
          "name": "from",
          "type": "address"
        },
        {
          "indexed": true,
          "internalType": "address",
          "name": "to",
          "type": "address"
        },
        {
          "indexed": true,
          "internalType": "uint256",
          "name": "tokenId",
          "type": "uint256"
        }
      ],
      "name": "Transfer",
      "type": "event"
    },
    {
      "inputs": [
        {
          "internalType": "address",
          "name": "to",
          "type": "address"
        },
        {
          "internalType": "uint256",
          "name": "tokenId",
          "type": "uint256"
        }
      ],
      "name": "approve",
      "outputs": [],
      "stateMutability": "nonpayable",
      "type": "function"
    },
    {
      "inputs": [
        {
          "internalType": "address",
          "name": "owner",
          "type": "address"
        }
      ],
      "name": "balanceOf",
      "outputs": [
        {
          "internalType": "uint256",
          "name": "",
          "type": "uint256"
        }
      ],
      "stateMutability": "view",
      "type": "function"
    },
    {
      "inputs": [],
      "name": "buyTicket",
      "outputs": [],
      "stateMutability": "payable",
      "type": "function"
    },
    {
      "inputs": [],
      "name": "creator",
      "outputs": [
        {
          "internalType": "address",
          "name": "",
          "type": "address"
        }
      ],
      "stateMutability": "view",
      "type": "function"
    },
    {
      "inputs": [
        {
          "internalType": "uint256",
          "name": "tokenId",
          "type": "uint256"
        }
      ],
      "name": "getApproved",
      "outputs": [
        {
          "internalType": "address",
          "name": "",
          "type": "address"
        }
      ],
      "stateMutability": "view",
      "type": "function"
    },
    {
      "inputs": [
        {
          "internalType": "uint256",
          "name": "_totalSupply",
          "type": "uint256"
        },
        {
          "internalType": "uint256",
          "name": "_price",
          "type": "uint256"
        },
        {
          "internalType": "uint256",
          "name": "eventId",
          "type": "uint256"
        },
        {
          "internalType": "address",
          "name": "_registery",
          "type": "address"
        }
      ],
      "name": "initialize",
      "outputs": [],
      "stateMutability": "nonpayable",
      "type": "function"
    },
    {
      "inputs": [
        {
          "internalType": "address",
          "name": "owner",
          "type": "address"
        },
        {
          "internalType": "address",
          "name": "operator",
          "type": "address"
        }
      ],
      "name": "isApprovedForAll",
      "outputs": [
        {
          "internalType": "bool",
          "name": "",
          "type": "bool"
        }
      ],
      "stateMutability": "view",
      "type": "function"
    },
    {
      "inputs": [],
      "name": "isCreator",
      "outputs": [
        {
          "internalType": "bool",
          "name": "",
          "type": "bool"
        }
      ],
      "stateMutability": "view",
      "type": "function"
    },
    {
      "inputs": [],
      "name": "name",
      "outputs": [
        {
          "internalType": "string",
          "name": "",
          "type": "string"
        }
      ],
      "stateMutability": "view",
      "type": "function"
    },
    {
      "inputs": [],
      "name": "owner",
      "outputs": [
        {
          "internalType": "address",
          "name": "",
          "type": "address"
        }
      ],
      "stateMutability": "view",
      "type": "function"
    },
    {
      "inputs": [
        {
          "internalType": "uint256",
          "name": "tokenId",
          "type": "uint256"
        }
      ],
      "name": "ownerOf",
      "outputs": [
        {
          "internalType": "address",
          "name": "",
          "type": "address"
        }
      ],
      "stateMutability": "view",
      "type": "function"
    },
    {
      "inputs": [],
      "name": "price",
      "outputs": [
        {
          "internalType": "uint256",
          "name": "",
          "type": "uint256"
        }
      ],
      "stateMutability": "view",
      "type": "function"
    },
    {
      "inputs": [],
      "name": "renounceOwnership",
      "outputs": [],
      "stateMutability": "nonpayable",
      "type": "function"
    },
    {
      "inputs": [
        {
          "internalType": "address",
          "name": "from",
          "type": "address"
        },
        {
          "internalType": "address",
          "name": "to",
          "type": "address"
        },
        {
          "internalType": "uint256",
          "name": "tokenId",
          "type": "uint256"
        }
      ],
      "name": "safeTransferFrom",
      "outputs": [],
      "stateMutability": "nonpayable",
      "type": "function"
    },
    {
      "inputs": [
        {
          "internalType": "address",
          "name": "from",
          "type": "address"
        },
        {
          "internalType": "address",
          "name": "to",
          "type": "address"
        },
        {
          "internalType": "uint256",
          "name": "tokenId",
          "type": "uint256"
        },
        {
          "internalType": "bytes",
          "name": "data",
          "type": "bytes"
        }
      ],
      "name": "safeTransferFrom",
      "outputs": [],
      "stateMutability": "nonpayable",
      "type": "function"
    },
    {
      "inputs": [
        {
          "internalType": "address",
          "name": "operator",
          "type": "address"
        },
        {
          "internalType": "bool",
          "name": "approved",
          "type": "bool"
        }
      ],
      "name": "setApprovalForAll",
      "outputs": [],
      "stateMutability": "nonpayable",
      "type": "function"
    },
    {
      "inputs": [
        {
          "internalType": "bytes4",
          "name": "interfaceId",
          "type": "bytes4"
        }
      ],
      "name": "supportsInterface",
      "outputs": [
        {
          "internalType": "bool",
          "name": "",
          "type": "bool"
        }
      ],
      "stateMutability": "view",
      "type": "function"
    },
    {
      "inputs": [],
      "name": "symbol",
      "outputs": [
        {
          "internalType": "string",
          "name": "",
          "type": "string"
        }
      ],
      "stateMutability": "view",
      "type": "function"
    },
    {
      "inputs": [
        {
          "internalType": "uint256",
          "name": "tokenId",
          "type": "uint256"
        }
      ],
      "name": "tokenURI",
      "outputs": [
        {
          "internalType": "string",
          "name": "",
          "type": "string"
        }
      ],
      "stateMutability": "view",
      "type": "function"
    },
    {
      "inputs": [],
      "name": "totalSupply",
      "outputs": [
        {
          "internalType": "uint256",
          "name": "",
          "type": "uint256"
        }
      ],
      "stateMutability": "view",
      "type": "function"
    },
    {
      "inputs": [
        {
          "internalType": "address",
          "name": "from",
          "type": "address"
        },
        {
          "internalType": "address",
          "name": "to",
          "type": "address"
        },
        {
          "internalType": "uint256",
          "name": "tokenId",
          "type": "uint256"
        }
      ],
      "name": "transferFrom",
      "outputs": [],
      "stateMutability": "nonpayable",
      "type": "function"
    },
    {
      "inputs": [
        {
          "internalType": "address",
          "name": "newOwner",
          "type": "address"
        }
      ],
      "name": "transferOwnership",
      "outputs": [],
      "stateMutability": "nonpayable",
      "type": "function"
    },
    {
      "inputs": [],
      "name": "usdcAddress",
      "outputs": [
        {
          "internalType": "address",
          "name": "",
          "type": "address"
        }
      ],
      "stateMutability": "view",
      "type": "function"
    }
  ],
  "bytecode": "0x608060405234801561001057600080fd5b50611b50806100206000396000f3fe6080604052600436106101405760003560e01c806370a08231116100b6578063b88d4fde1161006f578063b88d4fde14610380578063c87b56dd146103a0578063e985e9c5146103c0578063edca914c14610409578063ee92d48414610411578063f2fde38b1461042657600080fd5b806370a08231146102e2578063715018a6146103025780638da5cb5b1461031757806395d89b4114610335578063a035b1fe1461034a578063a22cb4651461036057600080fd5b8063095ea7b311610108578063095ea7b31461021c57806318160ddd1461023e5780631f8d519d1461026257806323b872dd1461028257806342842e0e146102a25780636352211e146102c257600080fd5b806301ffc9a71461014557806302d05d3f1461017a57806302d45457146101b257806306fdde03146101da578063081812fc146101fc575b600080fd5b34801561015157600080fd5b506101656101603660046115af565b610446565b60405190151581526020015b60405180910390f35b34801561018657600080fd5b5060fe5461019a906001600160a01b031681565b6040516001600160a01b039091168152602001610171565b3480156101be57600080fd5b5061019a732791bca1f2de4661ed88a30c99a7a9449aa8417481565b3480156101e657600080fd5b506101ef610498565b6040516101719190611624565b34801561020857600080fd5b5061019a610217366004611637565b61052a565b34801561022857600080fd5b5061023c61023736600461166c565b610551565b005b34801561024a57600080fd5b5061025460fd5481565b604051908152602001610171565b34801561026e57600080fd5b5061023c61027d366004611696565b61066c565b34801561028e57600080fd5b5061023c61029d3660046116d5565b6107d3565b3480156102ae57600080fd5b5061023c6102bd3660046116d5565b610804565b3480156102ce57600080fd5b5061019a6102dd366004611637565b61081f565b3480156102ee57600080fd5b506102546102fd366004611711565b61087f565b34801561030e57600080fd5b5061023c610905565b34801561032357600080fd5b506033546001600160a01b031661019a565b34801561034157600080fd5b506101ef610919565b34801561035657600080fd5b5061025460fc5481565b34801561036c57600080fd5b5061023c61037b36600461172c565b610928565b34801561038c57600080fd5b5061023c61039b36600461177e565b610937565b3480156103ac57600080fd5b506101ef6103bb366004611637565b61096f565b3480156103cc57600080fd5b506101656103db36600461185a565b6001600160a01b039182166000908152609c6020908152604080832093909416825291909152205460ff1690565b61023c610a73565b34801561041d57600080fd5b50610165610ae0565b34801561043257600080fd5b5061023c610441366004611711565b610b02565b60006001600160e01b031982166380ac58cd60e01b148061047757506001600160e01b03198216635b5e139f60e01b145b8061049257506301ffc9a760e01b6001600160e01b03198316145b92915050565b6060609780546104a79061188d565b80601f01602080910402602001604051908101604052809291908181526020018280546104d39061188d565b80156105205780601f106104f557610100808354040283529160200191610520565b820191906000526020600020905b81548152906001019060200180831161050357829003601f168201915b5050505050905090565b600061053582610b7b565b506000908152609b60205260409020546001600160a01b031690565b600061055c8261081f565b9050806001600160a01b0316836001600160a01b031614156105cf5760405162461bcd60e51b815260206004820152602160248201527f4552433732313a20617070726f76616c20746f2063757272656e74206f776e656044820152603960f91b60648201526084015b60405180910390fd5b336001600160a01b03821614806105eb57506105eb81336103db565b61065d5760405162461bcd60e51b815260206004820152603e60248201527f4552433732313a20617070726f76652063616c6c6572206973206e6f7420746f60448201527f6b656e206f776e6572206e6f7220617070726f76656420666f7220616c6c000060648201526084016105c6565b6106678383610bda565b505050565b600054610100900460ff161580801561068c5750600054600160ff909116105b806106a65750303b1580156106a6575060005460ff166001145b6107095760405162461bcd60e51b815260206004820152602e60248201527f496e697469616c697a61626c653a20636f6e747261637420697320616c72656160448201526d191e481a5b9a5d1a585b1a5e995960921b60648201526084016105c6565b6000805460ff19166001179055801561072c576000805461ff0019166101001790555b61077460405180604001604052806008815260200167115d995b9d13919560c21b81525060405180604001604052806006815260200165151250d2d15560d21b815250610c48565b61077c610c79565b60fc84905560fd85905580156107cc576000805461ff0019169055604051600181527f7f26b83ff96e1f2b6a682f133852f6798a09c465da95921460cefb38474024989060200160405180910390a15b5050505050565b6107dd3382610ca8565b6107f95760405162461bcd60e51b81526004016105c6906118c8565b610667838383610d26565b61066783838360405180602001604052806000815250610937565b6000818152609960205260408120546001600160a01b0316806104925760405162461bcd60e51b8152602060048201526018602482015277115490cdcc8c4e881a5b9d985b1a59081d1bdad95b88125160421b60448201526064016105c6565b60006001600160a01b0382166108e95760405162461bcd60e51b815260206004820152602960248201527f4552433732313a2061646472657373207a65726f206973206e6f7420612076616044820152683634b21037bbb732b960b91b60648201526084016105c6565b506001600160a01b03166000908152609a602052604090205490565b61090d610ec2565b6109176000610f1c565b565b6060609880546104a79061188d565b610933338383610f6e565b5050565b6109413383610ca8565b61095d5760405162461bcd60e51b81526004016105c6906118c8565b6109698484848461103d565b50505050565b606061097a82610b7b565b600082815260c96020526040812080546109939061188d565b80601f01602080910402602001604051908101604052809291908181526020018280546109bf9061188d565b8015610a0c5780601f106109e157610100808354040283529160200191610a0c565b820191906000526020600020905b8154815290600101906020018083116109ef57829003601f168201915b505050505090506000610a1d611070565b9050805160001415610a30575092915050565b815115610a62578082604051602001610a4a929190611916565b60405160208183030381529060405292505050919050565b610a6b84611090565b949350505050565b610a8533610a8060fb5490565b6110f7565b7f985d112c54c7518a49841fc37640d9ded60112ea7370ca9129c8ed33c3607bc733610ab060fb5490565b604080516001600160a01b03909316835260208301919091520160405180910390a161091760fb80546001019055565b60fe546000906001600160a01b0316331415610afc5750600190565b50600090565b610b0a610ec2565b6001600160a01b038116610b6f5760405162461bcd60e51b815260206004820152602660248201527f4f776e61626c653a206e6577206f776e657220697320746865207a65726f206160448201526564647265737360d01b60648201526084016105c6565b610b7881610f1c565b50565b6000818152609960205260409020546001600160a01b0316610b785760405162461bcd60e51b8152602060048201526018602482015277115490cdcc8c4e881a5b9d985b1a59081d1bdad95b88125160421b60448201526064016105c6565b6000818152609b6020526040902080546001600160a01b0319166001600160a01b0384169081179091558190610c0f8261081f565b6001600160a01b03167f8c5be1e5ebec7d5bd14f71427d1e84f3dd0314c0f7b2291e5b200ac8c7c3b92560405160405180910390a45050565b600054610100900460ff16610c6f5760405162461bcd60e51b81526004016105c690611945565b6109338282611111565b600054610100900460ff16610ca05760405162461bcd60e51b81526004016105c690611945565b61091761115f565b600080610cb48361081f565b9050806001600160a01b0316846001600160a01b03161480610cfb57506001600160a01b038082166000908152609c602090815260408083209388168352929052205460ff165b80610a6b5750836001600160a01b0316610d148461052a565b6001600160a01b031614949350505050565b826001600160a01b0316610d398261081f565b6001600160a01b031614610d9d5760405162461bcd60e51b815260206004820152602560248201527f4552433732313a207472616e736665722066726f6d20696e636f72726563742060448201526437bbb732b960d91b60648201526084016105c6565b6001600160a01b038216610dff5760405162461bcd60e51b8152602060048201526024808201527f4552433732313a207472616e7366657220746f20746865207a65726f206164646044820152637265737360e01b60648201526084016105c6565b610e0a600082610bda565b6001600160a01b0383166000908152609a60205260408120805460019290610e339084906119a6565b90915550506001600160a01b0382166000908152609a60205260408120805460019290610e619084906119bd565b909155505060008181526099602052604080822080546001600160a01b0319166001600160a01b0386811691821790925591518493918716917fddf252ad1be2c89b69c2b068fc378daa952ba7f163c4a11628f55a4df523b3ef91a4505050565b6033546001600160a01b031633146109175760405162461bcd60e51b815260206004820181905260248201527f4f776e61626c653a2063616c6c6572206973206e6f7420746865206f776e657260448201526064016105c6565b603380546001600160a01b038381166001600160a01b0319831681179093556040519116919082907f8be0079c531659141344cd1fd0a4f28419497f9722a3daafe3b4186f6b6457e090600090a35050565b816001600160a01b0316836001600160a01b03161415610fd05760405162461bcd60e51b815260206004820152601960248201527f4552433732313a20617070726f766520746f2063616c6c65720000000000000060448201526064016105c6565b6001600160a01b038381166000818152609c6020908152604080832094871680845294825291829020805460ff191686151590811790915591519182527f17307eab39ab6107e8899845ad3d59bd9653f200f220920489ca2b5937696c31910160405180910390a3505050565b611048848484610d26565b6110548484848461118f565b6109695760405162461bcd60e51b81526004016105c6906119d5565b60606040518060600160405280602a8152602001611af1602a9139905090565b606061109b82610b7b565b60006110a5611070565b905060008151116110c557604051806020016040528060008152506110f0565b806110cf8461128d565b6040516020016110e0929190611916565b6040516020818303038152906040525b9392505050565b61093382826040518060200160405280600081525061138b565b600054610100900460ff166111385760405162461bcd60e51b81526004016105c690611945565b815161114b906097906020850190611500565b508051610667906098906020840190611500565b600054610100900460ff166111865760405162461bcd60e51b81526004016105c690611945565b61091733610f1c565b60006001600160a01b0384163b1561128257604051630a85bd0160e11b81526001600160a01b0385169063150b7a02906111d3903390899088908890600401611a27565b6020604051808303816000875af192505050801561120e575060408051601f3d908101601f1916820190925261120b91810190611a64565b60015b611268573d80801561123c576040519150601f19603f3d011682016040523d82523d6000602084013e611241565b606091505b5080516112605760405162461bcd60e51b81526004016105c6906119d5565b805181602001fd5b6001600160e01b031916630a85bd0160e11b149050610a6b565b506001949350505050565b6060816112b15750506040805180820190915260018152600360fc1b602082015290565b8160005b81156112db57806112c581611a81565b91506112d49050600a83611ab2565b91506112b5565b60008167ffffffffffffffff8111156112f6576112f6611768565b6040519080825280601f01601f191660200182016040528015611320576020820181803683370190505b5090505b8415610a6b576113356001836119a6565b9150611342600a86611ac6565b61134d9060306119bd565b60f81b81838151811061136257611362611ada565b60200101906001600160f81b031916908160001a905350611384600a86611ab2565b9450611324565b61139583836113be565b6113a2600084848461118f565b6106675760405162461bcd60e51b81526004016105c6906119d5565b6001600160a01b0382166114145760405162461bcd60e51b815260206004820181905260248201527f4552433732313a206d696e7420746f20746865207a65726f206164647265737360448201526064016105c6565b6000818152609960205260409020546001600160a01b0316156114795760405162461bcd60e51b815260206004820152601c60248201527f4552433732313a20746f6b656e20616c7265616479206d696e7465640000000060448201526064016105c6565b6001600160a01b0382166000908152609a602052604081208054600192906114a29084906119bd565b909155505060008181526099602052604080822080546001600160a01b0319166001600160a01b03861690811790915590518392907fddf252ad1be2c89b69c2b068fc378daa952ba7f163c4a11628f55a4df523b3ef908290a45050565b82805461150c9061188d565b90600052602060002090601f01602090048101928261152e5760008555611574565b82601f1061154757805160ff1916838001178555611574565b82800160010185558215611574579182015b82811115611574578251825591602001919060010190611559565b50611580929150611584565b5090565b5b808211156115805760008155600101611585565b6001600160e01b031981168114610b7857600080fd5b6000602082840312156115c157600080fd5b81356110f081611599565b60005b838110156115e75781810151838201526020016115cf565b838111156109695750506000910152565b600081518084526116108160208601602086016115cc565b601f01601f19169290920160200192915050565b6020815260006110f060208301846115f8565b60006020828403121561164957600080fd5b5035919050565b80356001600160a01b038116811461166757600080fd5b919050565b6000806040838503121561167f57600080fd5b61168883611650565b946020939093013593505050565b600080600080608085870312156116ac57600080fd5b8435935060208501359250604085013591506116ca60608601611650565b905092959194509250565b6000806000606084860312156116ea57600080fd5b6116f384611650565b925061170160208501611650565b9150604084013590509250925092565b60006020828403121561172357600080fd5b6110f082611650565b6000806040838503121561173f57600080fd5b61174883611650565b91506020830135801515811461175d57600080fd5b809150509250929050565b634e487b7160e01b600052604160045260246000fd5b6000806000806080858703121561179457600080fd5b61179d85611650565b93506117ab60208601611650565b925060408501359150606085013567ffffffffffffffff808211156117cf57600080fd5b818701915087601f8301126117e357600080fd5b8135818111156117f5576117f5611768565b604051601f8201601f19908116603f0116810190838211818310171561181d5761181d611768565b816040528281528a602084870101111561183657600080fd5b82602086016020830137600060208483010152809550505050505092959194509250565b6000806040838503121561186d57600080fd5b61187683611650565b915061188460208401611650565b90509250929050565b600181811c908216806118a157607f821691505b602082108114156118c257634e487b7160e01b600052602260045260246000fd5b50919050565b6020808252602e908201527f4552433732313a2063616c6c6572206973206e6f7420746f6b656e206f776e6560408201526d1c881b9bdc88185c1c1c9bdd995960921b606082015260800190565b600083516119288184602088016115cc565b83519083019061193c8183602088016115cc565b01949350505050565b6020808252602b908201527f496e697469616c697a61626c653a20636f6e7472616374206973206e6f74206960408201526a6e697469616c697a696e6760a81b606082015260800190565b634e487b7160e01b600052601160045260246000fd5b6000828210156119b8576119b8611990565b500390565b600082198211156119d0576119d0611990565b500190565b60208082526032908201527f4552433732313a207472616e7366657220746f206e6f6e20455243373231526560408201527131b2b4bb32b91034b6b83632b6b2b73a32b960711b606082015260800190565b6001600160a01b0385811682528416602082015260408101839052608060608201819052600090611a5a908301846115f8565b9695505050505050565b600060208284031215611a7657600080fd5b81516110f081611599565b6000600019821415611a9557611a95611990565b5060010190565b634e487b7160e01b600052601260045260246000fd5b600082611ac157611ac1611a9c565b500490565b600082611ad557611ad5611a9c565b500690565b634e487b7160e01b600052603260045260246000fdfe68747470733a2f2f746573746e65742e7461626c656c616e642e6e6574776f726b2f71756572793f733da2646970667358221220114dd1fc50d6e596bed1076ee9e4950aad06f1ba2a7f774c5ae4fa72b6e2b23d64736f6c634300080c0033",
  "linkReferences": {},
  "deployedLinkReferences": {}
}